{
	"Contracts/FundMe.sol": {
		"FundMe": {
			"abi": [
				{
					"inputs": [
						{
							"internalType": "address",
							"name": "",
							"type": "address"
						}
					],
					"name": "addressToAmountFunded",
					"outputs": [
						{
							"internalType": "uint256",
							"name": "",
							"type": "uint256"
						}
					],
					"stateMutability": "view",
					"type": "function"
				},
				{
					"inputs": [],
					"name": "fund",
					"outputs": [],
					"stateMutability": "payable",
					"type": "function"
				},
				{
					"inputs": [
						{
							"internalType": "uint256",
							"name": "",
							"type": "uint256"
						}
					],
					"name": "funders",
					"outputs": [
						{
							"internalType": "address",
							"name": "",
							"type": "address"
						}
					],
					"stateMutability": "view",
					"type": "function"
				},
				{
					"inputs": [
						{
							"internalType": "uint256",
							"name": "ethAmount",
							"type": "uint256"
						}
					],
					"name": "getConversionRate",
					"outputs": [
						{
							"internalType": "uint256",
							"name": "",
							"type": "uint256"
						}
					],
					"stateMutability": "view",
					"type": "function"
				},
				{
					"inputs": [],
					"name": "getPrice",
					"outputs": [
						{
							"internalType": "uint256",
							"name": "",
							"type": "uint256"
						}
					],
					"stateMutability": "view",
					"type": "function"
				},
				{
					"inputs": [],
					"name": "minUsd",
					"outputs": [
						{
							"internalType": "uint256",
							"name": "",
							"type": "uint256"
						}
					],
					"stateMutability": "view",
					"type": "function"
				}
			],
			"devdoc": {
				"kind": "dev",
				"methods": {},
				"version": 1
			},
			"evm": {
				"assembly": "    /* \"Contracts/FundMe.sol\":217:1930  contract FundMe {... */\n  mstore(0x40, 0x80)\n    /* \"Contracts/FundMe.sol\":264:273  50 * 1e18 */\n  0x02b5e3af16b1880000\n    /* \"Contracts/FundMe.sol\":240:273  uint256 public minUsd = 50 * 1e18 */\n  0x00\n  sstore\n    /* \"Contracts/FundMe.sol\":217:1930  contract FundMe {... */\n  callvalue\n  dup1\n  iszero\n  tag_1\n  jumpi\n  0x00\n  dup1\n  revert\ntag_1:\n  pop\n  dataSize(sub_0)\n  dup1\n  dataOffset(sub_0)\n  0x00\n  codecopy\n  0x00\n  return\nstop\n\nsub_0: assembly {\n        /* \"Contracts/FundMe.sol\":217:1930  contract FundMe {... */\n      mstore(0x40, 0x80)\n      jumpi(tag_1, lt(calldatasize, 0x04))\n      shr(0xe0, calldataload(0x00))\n      dup1\n      0x3e47d6f3\n      eq\n      tag_2\n      jumpi\n      dup1\n      0x51b80e41\n      eq\n      tag_3\n      jumpi\n      dup1\n      0x6e5b6b28\n      eq\n      tag_4\n      jumpi\n      dup1\n      0x98d5fdca\n      eq\n      tag_5\n      jumpi\n      dup1\n      0xb60d4288\n      eq\n      tag_6\n      jumpi\n      dup1\n      0xdc0d3dff\n      eq\n      tag_7\n      jumpi\n    tag_1:\n      0x00\n      dup1\n      revert\n        /* \"Contracts/FundMe.sol\":310:366  mapping(address => uint256) public addressToAmountFunded */\n    tag_2:\n      callvalue\n      dup1\n      iszero\n      tag_8\n      jumpi\n      0x00\n      dup1\n      revert\n    tag_8:\n      pop\n      tag_9\n      0x04\n      dup1\n      calldatasize\n      sub\n      dup2\n      add\n      swap1\n      tag_10\n      swap2\n      swap1\n      tag_11\n      jump\t// in\n    tag_10:\n      tag_12\n      jump\t// in\n    tag_9:\n      mload(0x40)\n      tag_13\n      swap2\n      swap1\n      tag_14\n      jump\t// in\n    tag_13:\n      mload(0x40)\n      dup1\n      swap2\n      sub\n      swap1\n      return\n        /* \"Contracts/FundMe.sol\":240:273  uint256 public minUsd = 50 * 1e18 */\n    tag_3:\n      callvalue\n      dup1\n      iszero\n      tag_15\n      jumpi\n      0x00\n      dup1\n      revert\n    tag_15:\n      pop\n      tag_16\n      tag_17\n      jump\t// in\n    tag_16:\n      mload(0x40)\n      tag_18\n      swap2\n      swap1\n      tag_14\n      jump\t// in\n    tag_18:\n      mload(0x40)\n      dup1\n      swap2\n      sub\n      swap1\n      return\n        /* \"Contracts/FundMe.sol\":1514:1897  function getConversionRate(uint256 ethAmount) public view returns (uint256) {... */\n    tag_4:\n      callvalue\n      dup1\n      iszero\n      tag_19\n      jumpi\n      0x00\n      dup1\n      revert\n    tag_19:\n      pop\n      tag_20\n      0x04\n      dup1\n      calldatasize\n      sub\n      dup2\n      add\n      swap1\n      tag_21\n      swap2\n      swap1\n      tag_22\n      jump\t// in\n    tag_21:\n      tag_23\n      jump\t// in\n    tag_20:\n      mload(0x40)\n      tag_24\n      swap2\n      swap1\n      tag_14\n      jump\t// in\n    tag_24:\n      mload(0x40)\n      dup1\n      swap2\n      sub\n      swap1\n      return\n        /* \"Contracts/FundMe.sol\":1063:1508  function getPrice() public view returns (uint256) {... */\n    tag_5:\n      callvalue\n      dup1\n      iszero\n      tag_25\n      jumpi\n      0x00\n      dup1\n      revert\n    tag_25:\n      pop\n      tag_26\n      tag_27\n      jump\t// in\n    tag_26:\n      mload(0x40)\n      tag_28\n      swap2\n      swap1\n      tag_14\n      jump\t// in\n    tag_28:\n      mload(0x40)\n      dup1\n      swap2\n      sub\n      swap1\n      return\n        /* \"Contracts/FundMe.sol\":478:1042  function fund() public payable {... */\n    tag_6:\n      tag_29\n      tag_30\n      jump\t// in\n    tag_29:\n      stop\n        /* \"Contracts/FundMe.sol\":280:304  address[] public funders */\n    tag_7:\n      callvalue\n      dup1\n      iszero\n      tag_31\n      jumpi\n      0x00\n      dup1\n      revert\n    tag_31:\n      pop\n      tag_32\n      0x04\n      dup1\n      calldatasize\n      sub\n      dup2\n      add\n      swap1\n      tag_33\n      swap2\n      swap1\n      tag_22\n      jump\t// in\n    tag_33:\n      tag_34\n      jump\t// in\n    tag_32:\n      mload(0x40)\n      tag_35\n      swap2\n      swap1\n      tag_36\n      jump\t// in\n    tag_35:\n      mload(0x40)\n      dup1\n      swap2\n      sub\n      swap1\n      return\n        /* \"Contracts/FundMe.sol\":310:366  mapping(address => uint256) public addressToAmountFunded */\n    tag_12:\n      mstore(0x20, 0x02)\n      dup1\n      0x00\n      mstore\n      keccak256(0x00, 0x40)\n      0x00\n      swap2\n      pop\n      swap1\n      pop\n      sload\n      dup2\n      jump\t// out\n        /* \"Contracts/FundMe.sol\":240:273  uint256 public minUsd = 50 * 1e18 */\n    tag_17:\n      sload(0x00)\n      dup2\n      jump\t// out\n        /* \"Contracts/FundMe.sol\":1514:1897  function getConversionRate(uint256 ethAmount) public view returns (uint256) {... */\n    tag_23:\n        /* \"Contracts/FundMe.sol\":1581:1588  uint256 */\n      0x00\n        /* \"Contracts/FundMe.sol\":1659:1675  uint256 ethPrice */\n      dup1\n        /* \"Contracts/FundMe.sol\":1678:1688  getPrice() */\n      tag_38\n        /* \"Contracts/FundMe.sol\":1678:1686  getPrice */\n      tag_27\n        /* \"Contracts/FundMe.sol\":1678:1688  getPrice() */\n      jump\t// in\n    tag_38:\n        /* \"Contracts/FundMe.sol\":1659:1688  uint256 ethPrice = getPrice() */\n      swap1\n      pop\n        /* \"Contracts/FundMe.sol\":1753:1775  uint256 ethAmountInUsd */\n      0x00\n        /* \"Contracts/FundMe.sol\":1803:1807  1e18 */\n      0x0de0b6b3a7640000\n        /* \"Contracts/FundMe.sol\":1790:1799  ethAmount */\n      dup5\n        /* \"Contracts/FundMe.sol\":1779:1787  ethPrice */\n      dup4\n        /* \"Contracts/FundMe.sol\":1779:1799  ethPrice * ethAmount */\n      tag_39\n      swap2\n      swap1\n      tag_40\n      jump\t// in\n    tag_39:\n        /* \"Contracts/FundMe.sol\":1778:1807  (ethPrice * ethAmount) / 1e18 */\n      tag_41\n      swap2\n      swap1\n      tag_42\n      jump\t// in\n    tag_41:\n        /* \"Contracts/FundMe.sol\":1753:1807  uint256 ethAmountInUsd = (ethPrice * ethAmount) / 1e18 */\n      swap1\n      pop\n        /* \"Contracts/FundMe.sol\":1874:1888  ethAmountInUsd */\n      dup1\n        /* \"Contracts/FundMe.sol\":1867:1888  return ethAmountInUsd */\n      swap3\n      pop\n      pop\n      pop\n        /* \"Contracts/FundMe.sol\":1514:1897  function getConversionRate(uint256 ethAmount) public view returns (uint256) {... */\n      swap2\n      swap1\n      pop\n      jump\t// out\n        /* \"Contracts/FundMe.sol\":1063:1508  function getPrice() public view returns (uint256) {... */\n    tag_27:\n        /* \"Contracts/FundMe.sol\":1104:1111  uint256 */\n      0x00\n        /* \"Contracts/FundMe.sol\":1123:1154  AggregatorV3Interface priceFeed */\n      dup1\n        /* \"Contracts/FundMe.sol\":1179:1221  0x8A753747A1Fa494EC906cE90E9f37563A8AF630e */\n      0x8a753747a1fa494ec906ce90e9f37563a8af630e\n        /* \"Contracts/FundMe.sol\":1123:1222  AggregatorV3Interface priceFeed = AggregatorV3Interface(0x8A753747A1Fa494EC906cE90E9f37563A8AF630e) */\n      swap1\n      pop\n        /* \"Contracts/FundMe.sol\":1274:1286  int256 price */\n      0x00\n        /* \"Contracts/FundMe.sol\":1293:1302  priceFeed */\n      dup2\n        /* \"Contracts/FundMe.sol\":1293:1318  priceFeed.latestRoundData */\n      0xffffffffffffffffffffffffffffffffffffffff\n      and\n      0xfeaf968c\n        /* \"Contracts/FundMe.sol\":1293:1320  priceFeed.latestRoundData() */\n      mload(0x40)\n      dup2\n      0xffffffff\n      and\n      0xe0\n      shl\n      dup2\n      mstore\n      0x04\n      add\n      0xa0\n      mload(0x40)\n      dup1\n      dup4\n      sub\n      dup2\n      dup7\n      dup1\n      extcodesize\n      iszero\n      dup1\n      iszero\n      tag_44\n      jumpi\n      0x00\n      dup1\n      revert\n    tag_44:\n      pop\n      gas\n      staticcall\n      iszero\n      dup1\n      iszero\n      tag_46\n      jumpi\n      returndatasize\n      0x00\n      dup1\n      returndatacopy\n      revert(0x00, returndatasize)\n    tag_46:\n      pop\n      pop\n      pop\n      pop\n      mload(0x40)\n      returndatasize\n      not(0x1f)\n      0x1f\n      dup3\n      add\n      and\n      dup3\n      add\n      dup1\n      0x40\n      mstore\n      pop\n      dup2\n      add\n      swap1\n      tag_47\n      swap2\n      swap1\n      tag_48\n      jump\t// in\n    tag_47:\n        /* \"Contracts/FundMe.sol\":1272:1320  (,int256 price,,,) = priceFeed.latestRoundData() */\n      pop\n      pop\n      pop\n      swap2\n      pop\n      pop\n        /* \"Contracts/FundMe.sol\":1496:1500  1e10 */\n      0x02540be400\n        /* \"Contracts/FundMe.sol\":1488:1493  price */\n      dup2\n        /* \"Contracts/FundMe.sol\":1488:1500  price * 1e10 */\n      tag_49\n      swap2\n      swap1\n      tag_50\n      jump\t// in\n    tag_49:\n        /* \"Contracts/FundMe.sol\":1473:1501  return uint256(price * 1e10) */\n      swap3\n      pop\n      pop\n      pop\n        /* \"Contracts/FundMe.sol\":1063:1508  function getPrice() public view returns (uint256) {... */\n      swap1\n      jump\t// out\n        /* \"Contracts/FundMe.sol\":478:1042  function fund() public payable {... */\n    tag_30:\n        /* \"Contracts/FundMe.sol\":840:846  minUsd */\n      sload(0x00)\n        /* \"Contracts/FundMe.sol\":808:836  getConversionRate(msg.value) */\n      tag_52\n        /* \"Contracts/FundMe.sol\":826:835  msg.value */\n      callvalue\n        /* \"Contracts/FundMe.sol\":808:825  getConversionRate */\n      tag_23\n        /* \"Contracts/FundMe.sol\":808:836  getConversionRate(msg.value) */\n      jump\t// in\n    tag_52:\n        /* \"Contracts/FundMe.sol\":808:846  getConversionRate(msg.value) >= minUsd */\n      lt\n      iszero\n        /* \"Contracts/FundMe.sol\":800:869  require(getConversionRate(msg.value) >= minUsd, \"Didn't send enough\") */\n      tag_53\n      jumpi\n      mload(0x40)\n      0x08c379a000000000000000000000000000000000000000000000000000000000\n      dup2\n      mstore\n      0x04\n      add\n      tag_54\n      swap1\n      tag_55\n      jump\t// in\n    tag_54:\n      mload(0x40)\n      dup1\n      swap2\n      sub\n      swap1\n      revert\n    tag_53:\n        /* \"Contracts/FundMe.sol\":880:887  funders */\n      0x01\n        /* \"Contracts/FundMe.sol\":893:903  msg.sender */\n      caller\n        /* \"Contracts/FundMe.sol\":880:904  funders.push(msg.sender) */\n      swap1\n      dup1\n      0x01\n      dup2\n      sload\n      add\n      dup1\n      dup3\n      sstore\n      dup1\n      swap2\n      pop\n      pop\n      0x01\n      swap1\n      sub\n      swap1\n      0x00\n      mstore\n      keccak256(0x00, 0x20)\n      add\n      0x00\n      swap1\n      swap2\n      swap1\n      swap2\n      swap1\n      swap2\n      0x0100\n      exp\n      dup2\n      sload\n      dup2\n      0xffffffffffffffffffffffffffffffffffffffff\n      mul\n      not\n      and\n      swap1\n      dup4\n      0xffffffffffffffffffffffffffffffffffffffff\n      and\n      mul\n      or\n      swap1\n      sstore\n      pop\n        /* \"Contracts/FundMe.sol\":1026:1035  msg.value */\n      callvalue\n        /* \"Contracts/FundMe.sol\":990:1011  addressToAmountFunded */\n      0x02\n        /* \"Contracts/FundMe.sol\":990:1023  addressToAmountFunded[msg.sender] */\n      0x00\n        /* \"Contracts/FundMe.sol\":1012:1022  msg.sender */\n      caller\n        /* \"Contracts/FundMe.sol\":990:1023  addressToAmountFunded[msg.sender] */\n      0xffffffffffffffffffffffffffffffffffffffff\n      and\n      0xffffffffffffffffffffffffffffffffffffffff\n      and\n      dup2\n      mstore\n      0x20\n      add\n      swap1\n      dup2\n      mstore\n      0x20\n      add\n      0x00\n      keccak256\n        /* \"Contracts/FundMe.sol\":990:1035  addressToAmountFunded[msg.sender] = msg.value */\n      dup2\n      swap1\n      sstore\n      pop\n        /* \"Contracts/FundMe.sol\":478:1042  function fund() public payable {... */\n      jump\t// out\n        /* \"Contracts/FundMe.sol\":280:304  address[] public funders */\n    tag_34:\n      0x01\n      dup2\n      dup2\n      sload\n      dup2\n      lt\n      tag_57\n      jumpi\n      0x00\n      dup1\n      revert\n    tag_57:\n      swap1\n      0x00\n      mstore\n      keccak256(0x00, 0x20)\n      add\n      0x00\n      swap2\n      pop\n      sload\n      swap1\n      0x0100\n      exp\n      swap1\n      div\n      0xffffffffffffffffffffffffffffffffffffffff\n      and\n      dup2\n      jump\t// out\n        /* \"#utility.yul\":88:205   */\n    tag_60:\n        /* \"#utility.yul\":197:198   */\n      0x00\n        /* \"#utility.yul\":194:195   */\n      dup1\n        /* \"#utility.yul\":187:199   */\n      revert\n        /* \"#utility.yul\":334:460   */\n    tag_62:\n        /* \"#utility.yul\":371:378   */\n      0x00\n        /* \"#utility.yul\":411:453   */\n      0xffffffffffffffffffffffffffffffffffffffff\n        /* \"#utility.yul\":404:409   */\n      dup3\n        /* \"#utility.yul\":400:454   */\n      and\n        /* \"#utility.yul\":389:454   */\n      swap1\n      pop\n        /* \"#utility.yul\":334:460   */\n      swap2\n      swap1\n      pop\n      jump\t// out\n        /* \"#utility.yul\":466:562   */\n    tag_63:\n        /* \"#utility.yul\":503:510   */\n      0x00\n        /* \"#utility.yul\":532:556   */\n      tag_89\n        /* \"#utility.yul\":550:555   */\n      dup3\n        /* \"#utility.yul\":532:556   */\n      tag_62\n      jump\t// in\n    tag_89:\n        /* \"#utility.yul\":521:556   */\n      swap1\n      pop\n        /* \"#utility.yul\":466:562   */\n      swap2\n      swap1\n      pop\n      jump\t// out\n        /* \"#utility.yul\":568:690   */\n    tag_64:\n        /* \"#utility.yul\":641:665   */\n      tag_91\n        /* \"#utility.yul\":659:664   */\n      dup2\n        /* \"#utility.yul\":641:665   */\n      tag_63\n      jump\t// in\n    tag_91:\n        /* \"#utility.yul\":634:639   */\n      dup2\n        /* \"#utility.yul\":631:666   */\n      eq\n        /* \"#utility.yul\":621:684   */\n      tag_92\n      jumpi\n        /* \"#utility.yul\":680:681   */\n      0x00\n        /* \"#utility.yul\":677:678   */\n      dup1\n        /* \"#utility.yul\":670:682   */\n      revert\n        /* \"#utility.yul\":621:684   */\n    tag_92:\n        /* \"#utility.yul\":568:690   */\n      pop\n      jump\t// out\n        /* \"#utility.yul\":696:835   */\n    tag_65:\n        /* \"#utility.yul\":742:747   */\n      0x00\n        /* \"#utility.yul\":780:786   */\n      dup2\n        /* \"#utility.yul\":767:787   */\n      calldataload\n        /* \"#utility.yul\":758:787   */\n      swap1\n      pop\n        /* \"#utility.yul\":796:829   */\n      tag_94\n        /* \"#utility.yul\":823:828   */\n      dup2\n        /* \"#utility.yul\":796:829   */\n      tag_64\n      jump\t// in\n    tag_94:\n        /* \"#utility.yul\":696:835   */\n      swap3\n      swap2\n      pop\n      pop\n      jump\t// out\n        /* \"#utility.yul\":841:1170   */\n    tag_11:\n        /* \"#utility.yul\":900:906   */\n      0x00\n        /* \"#utility.yul\":949:951   */\n      0x20\n        /* \"#utility.yul\":937:946   */\n      dup3\n        /* \"#utility.yul\":928:935   */\n      dup5\n        /* \"#utility.yul\":924:947   */\n      sub\n        /* \"#utility.yul\":920:952   */\n      slt\n        /* \"#utility.yul\":917:1036   */\n      iszero\n      tag_96\n      jumpi\n        /* \"#utility.yul\":955:1034   */\n      tag_97\n      tag_60\n      jump\t// in\n    tag_97:\n        /* \"#utility.yul\":917:1036   */\n    tag_96:\n        /* \"#utility.yul\":1075:1076   */\n      0x00\n        /* \"#utility.yul\":1100:1153   */\n      tag_98\n        /* \"#utility.yul\":1145:1152   */\n      dup5\n        /* \"#utility.yul\":1136:1142   */\n      dup3\n        /* \"#utility.yul\":1125:1134   */\n      dup6\n        /* \"#utility.yul\":1121:1143   */\n      add\n        /* \"#utility.yul\":1100:1153   */\n      tag_65\n      jump\t// in\n    tag_98:\n        /* \"#utility.yul\":1090:1153   */\n      swap2\n      pop\n        /* \"#utility.yul\":1046:1163   */\n      pop\n        /* \"#utility.yul\":841:1170   */\n      swap3\n      swap2\n      pop\n      pop\n      jump\t// out\n        /* \"#utility.yul\":1176:1253   */\n    tag_66:\n        /* \"#utility.yul\":1213:1220   */\n      0x00\n        /* \"#utility.yul\":1242:1247   */\n      dup2\n        /* \"#utility.yul\":1231:1247   */\n      swap1\n      pop\n        /* \"#utility.yul\":1176:1253   */\n      swap2\n      swap1\n      pop\n      jump\t// out\n        /* \"#utility.yul\":1259:1377   */\n    tag_67:\n        /* \"#utility.yul\":1346:1370   */\n      tag_101\n        /* \"#utility.yul\":1364:1369   */\n      dup2\n        /* \"#utility.yul\":1346:1370   */\n      tag_66\n      jump\t// in\n    tag_101:\n        /* \"#utility.yul\":1341:1344   */\n      dup3\n        /* \"#utility.yul\":1334:1371   */\n      mstore\n        /* \"#utility.yul\":1259:1377   */\n      pop\n      pop\n      jump\t// out\n        /* \"#utility.yul\":1383:1605   */\n    tag_14:\n        /* \"#utility.yul\":1476:1480   */\n      0x00\n        /* \"#utility.yul\":1514:1516   */\n      0x20\n        /* \"#utility.yul\":1503:1512   */\n      dup3\n        /* \"#utility.yul\":1499:1517   */\n      add\n        /* \"#utility.yul\":1491:1517   */\n      swap1\n      pop\n        /* \"#utility.yul\":1527:1598   */\n      tag_103\n        /* \"#utility.yul\":1595:1596   */\n      0x00\n        /* \"#utility.yul\":1584:1593   */\n      dup4\n        /* \"#utility.yul\":1580:1597   */\n      add\n        /* \"#utility.yul\":1571:1577   */\n      dup5\n        /* \"#utility.yul\":1527:1598   */\n      tag_67\n      jump\t// in\n    tag_103:\n        /* \"#utility.yul\":1383:1605   */\n      swap3\n      swap2\n      pop\n      pop\n      jump\t// out\n        /* \"#utility.yul\":1611:1733   */\n    tag_68:\n        /* \"#utility.yul\":1684:1708   */\n      tag_105\n        /* \"#utility.yul\":1702:1707   */\n      dup2\n        /* \"#utility.yul\":1684:1708   */\n      tag_66\n      jump\t// in\n    tag_105:\n        /* \"#utility.yul\":1677:1682   */\n      dup2\n        /* \"#utility.yul\":1674:1709   */\n      eq\n        /* \"#utility.yul\":1664:1727   */\n      tag_106\n      jumpi\n        /* \"#utility.yul\":1723:1724   */\n      0x00\n        /* \"#utility.yul\":1720:1721   */\n      dup1\n        /* \"#utility.yul\":1713:1725   */\n      revert\n        /* \"#utility.yul\":1664:1727   */\n    tag_106:\n        /* \"#utility.yul\":1611:1733   */\n      pop\n      jump\t// out\n        /* \"#utility.yul\":1739:1878   */\n    tag_69:\n        /* \"#utility.yul\":1785:1790   */\n      0x00\n        /* \"#utility.yul\":1823:1829   */\n      dup2\n        /* \"#utility.yul\":1810:1830   */\n      calldataload\n        /* \"#utility.yul\":1801:1830   */\n      swap1\n      pop\n        /* \"#utility.yul\":1839:1872   */\n      tag_108\n        /* \"#utility.yul\":1866:1871   */\n      dup2\n        /* \"#utility.yul\":1839:1872   */\n      tag_68\n      jump\t// in\n    tag_108:\n        /* \"#utility.yul\":1739:1878   */\n      swap3\n      swap2\n      pop\n      pop\n      jump\t// out\n        /* \"#utility.yul\":1884:2213   */\n    tag_22:\n        /* \"#utility.yul\":1943:1949   */\n      0x00\n        /* \"#utility.yul\":1992:1994   */\n      0x20\n        /* \"#utility.yul\":1980:1989   */\n      dup3\n        /* \"#utility.yul\":1971:1978   */\n      dup5\n        /* \"#utility.yul\":1967:1990   */\n      sub\n        /* \"#utility.yul\":1963:1995   */\n      slt\n        /* \"#utility.yul\":1960:2079   */\n      iszero\n      tag_110\n      jumpi\n        /* \"#utility.yul\":1998:2077   */\n      tag_111\n      tag_60\n      jump\t// in\n    tag_111:\n        /* \"#utility.yul\":1960:2079   */\n    tag_110:\n        /* \"#utility.yul\":2118:2119   */\n      0x00\n        /* \"#utility.yul\":2143:2196   */\n      tag_112\n        /* \"#utility.yul\":2188:2195   */\n      dup5\n        /* \"#utility.yul\":2179:2185   */\n      dup3\n        /* \"#utility.yul\":2168:2177   */\n      dup6\n        /* \"#utility.yul\":2164:2186   */\n      add\n        /* \"#utility.yul\":2143:2196   */\n      tag_69\n      jump\t// in\n    tag_112:\n        /* \"#utility.yul\":2133:2196   */\n      swap2\n      pop\n        /* \"#utility.yul\":2089:2206   */\n      pop\n        /* \"#utility.yul\":1884:2213   */\n      swap3\n      swap2\n      pop\n      pop\n      jump\t// out\n        /* \"#utility.yul\":2219:2337   */\n    tag_70:\n        /* \"#utility.yul\":2306:2330   */\n      tag_114\n        /* \"#utility.yul\":2324:2329   */\n      dup2\n        /* \"#utility.yul\":2306:2330   */\n      tag_63\n      jump\t// in\n    tag_114:\n        /* \"#utility.yul\":2301:2304   */\n      dup3\n        /* \"#utility.yul\":2294:2331   */\n      mstore\n        /* \"#utility.yul\":2219:2337   */\n      pop\n      pop\n      jump\t// out\n        /* \"#utility.yul\":2343:2565   */\n    tag_36:\n        /* \"#utility.yul\":2436:2440   */\n      0x00\n        /* \"#utility.yul\":2474:2476   */\n      0x20\n        /* \"#utility.yul\":2463:2472   */\n      dup3\n        /* \"#utility.yul\":2459:2477   */\n      add\n        /* \"#utility.yul\":2451:2477   */\n      swap1\n      pop\n        /* \"#utility.yul\":2487:2558   */\n      tag_116\n        /* \"#utility.yul\":2555:2556   */\n      0x00\n        /* \"#utility.yul\":2544:2553   */\n      dup4\n        /* \"#utility.yul\":2540:2557   */\n      add\n        /* \"#utility.yul\":2531:2537   */\n      dup5\n        /* \"#utility.yul\":2487:2558   */\n      tag_70\n      jump\t// in\n    tag_116:\n        /* \"#utility.yul\":2343:2565   */\n      swap3\n      swap2\n      pop\n      pop\n      jump\t// out\n        /* \"#utility.yul\":2571:2751   */\n    tag_71:\n        /* \"#utility.yul\":2619:2696   */\n      0x4e487b7100000000000000000000000000000000000000000000000000000000\n        /* \"#utility.yul\":2616:2617   */\n      0x00\n        /* \"#utility.yul\":2609:2697   */\n      mstore\n        /* \"#utility.yul\":2716:2720   */\n      0x11\n        /* \"#utility.yul\":2713:2714   */\n      0x04\n        /* \"#utility.yul\":2706:2721   */\n      mstore\n        /* \"#utility.yul\":2740:2744   */\n      0x24\n        /* \"#utility.yul\":2737:2738   */\n      0x00\n        /* \"#utility.yul\":2730:2745   */\n      revert\n        /* \"#utility.yul\":2757:3105   */\n    tag_40:\n        /* \"#utility.yul\":2797:2804   */\n      0x00\n        /* \"#utility.yul\":2820:2840   */\n      tag_119\n        /* \"#utility.yul\":2838:2839   */\n      dup3\n        /* \"#utility.yul\":2820:2840   */\n      tag_66\n      jump\t// in\n    tag_119:\n        /* \"#utility.yul\":2815:2840   */\n      swap2\n      pop\n        /* \"#utility.yul\":2854:2874   */\n      tag_120\n        /* \"#utility.yul\":2872:2873   */\n      dup4\n        /* \"#utility.yul\":2854:2874   */\n      tag_66\n      jump\t// in\n    tag_120:\n        /* \"#utility.yul\":2849:2874   */\n      swap3\n      pop\n        /* \"#utility.yul\":3042:3043   */\n      dup2\n        /* \"#utility.yul\":2974:3040   */\n      0xffffffffffffffffffffffffffffffffffffffffffffffffffffffffffffffff\n        /* \"#utility.yul\":2970:3044   */\n      div\n        /* \"#utility.yul\":2967:2968   */\n      dup4\n        /* \"#utility.yul\":2964:3045   */\n      gt\n        /* \"#utility.yul\":2959:2960   */\n      dup3\n        /* \"#utility.yul\":2952:2961   */\n      iszero\n        /* \"#utility.yul\":2945:2962   */\n      iszero\n        /* \"#utility.yul\":2941:3046   */\n      and\n        /* \"#utility.yul\":2938:3069   */\n      iszero\n      tag_121\n      jumpi\n        /* \"#utility.yul\":3049:3067   */\n      tag_122\n      tag_71\n      jump\t// in\n    tag_122:\n        /* \"#utility.yul\":2938:3069   */\n    tag_121:\n        /* \"#utility.yul\":3097:3098   */\n      dup3\n        /* \"#utility.yul\":3094:3095   */\n      dup3\n        /* \"#utility.yul\":3090:3099   */\n      mul\n        /* \"#utility.yul\":3079:3099   */\n      swap1\n      pop\n        /* \"#utility.yul\":2757:3105   */\n      swap3\n      swap2\n      pop\n      pop\n      jump\t// out\n        /* \"#utility.yul\":3111:3291   */\n    tag_72:\n        /* \"#utility.yul\":3159:3236   */\n      0x4e487b7100000000000000000000000000000000000000000000000000000000\n        /* \"#utility.yul\":3156:3157   */\n      0x00\n        /* \"#utility.yul\":3149:3237   */\n      mstore\n        /* \"#utility.yul\":3256:3260   */\n      0x12\n        /* \"#utility.yul\":3253:3254   */\n      0x04\n        /* \"#utility.yul\":3246:3261   */\n      mstore\n        /* \"#utility.yul\":3280:3284   */\n      0x24\n        /* \"#utility.yul\":3277:3278   */\n      0x00\n        /* \"#utility.yul\":3270:3285   */\n      revert\n        /* \"#utility.yul\":3297:3482   */\n    tag_42:\n        /* \"#utility.yul\":3337:3338   */\n      0x00\n        /* \"#utility.yul\":3354:3374   */\n      tag_125\n        /* \"#utility.yul\":3372:3373   */\n      dup3\n        /* \"#utility.yul\":3354:3374   */\n      tag_66\n      jump\t// in\n    tag_125:\n        /* \"#utility.yul\":3349:3374   */\n      swap2\n      pop\n        /* \"#utility.yul\":3388:3408   */\n      tag_126\n        /* \"#utility.yul\":3406:3407   */\n      dup4\n        /* \"#utility.yul\":3388:3408   */\n      tag_66\n      jump\t// in\n    tag_126:\n        /* \"#utility.yul\":3383:3408   */\n      swap3\n      pop\n        /* \"#utility.yul\":3427:3428   */\n      dup3\n        /* \"#utility.yul\":3417:3452   */\n      tag_127\n      jumpi\n        /* \"#utility.yul\":3432:3450   */\n      tag_128\n      tag_72\n      jump\t// in\n    tag_128:\n        /* \"#utility.yul\":3417:3452   */\n    tag_127:\n        /* \"#utility.yul\":3474:3475   */\n      dup3\n        /* \"#utility.yul\":3471:3472   */\n      dup3\n        /* \"#utility.yul\":3467:3476   */\n      div\n        /* \"#utility.yul\":3462:3476   */\n      swap1\n      pop\n        /* \"#utility.yul\":3297:3482   */\n      swap3\n      swap2\n      pop\n      pop\n      jump\t// out\n        /* \"#utility.yul\":3488:3593   */\n    tag_73:\n        /* \"#utility.yul\":3524:3531   */\n      0x00\n        /* \"#utility.yul\":3564:3586   */\n      0xffffffffffffffffffff\n        /* \"#utility.yul\":3557:3562   */\n      dup3\n        /* \"#utility.yul\":3553:3587   */\n      and\n        /* \"#utility.yul\":3542:3587   */\n      swap1\n      pop\n        /* \"#utility.yul\":3488:3593   */\n      swap2\n      swap1\n      pop\n      jump\t// out\n        /* \"#utility.yul\":3599:3719   */\n    tag_74:\n        /* \"#utility.yul\":3671:3694   */\n      tag_131\n        /* \"#utility.yul\":3688:3693   */\n      dup2\n        /* \"#utility.yul\":3671:3694   */\n      tag_73\n      jump\t// in\n    tag_131:\n        /* \"#utility.yul\":3664:3669   */\n      dup2\n        /* \"#utility.yul\":3661:3695   */\n      eq\n        /* \"#utility.yul\":3651:3713   */\n      tag_132\n      jumpi\n        /* \"#utility.yul\":3709:3710   */\n      0x00\n        /* \"#utility.yul\":3706:3707   */\n      dup1\n        /* \"#utility.yul\":3699:3711   */\n      revert\n        /* \"#utility.yul\":3651:3713   */\n    tag_132:\n        /* \"#utility.yul\":3599:3719   */\n      pop\n      jump\t// out\n        /* \"#utility.yul\":3725:3866   */\n    tag_75:\n        /* \"#utility.yul\":3781:3786   */\n      0x00\n        /* \"#utility.yul\":3812:3818   */\n      dup2\n        /* \"#utility.yul\":3806:3819   */\n      mload\n        /* \"#utility.yul\":3797:3819   */\n      swap1\n      pop\n        /* \"#utility.yul\":3828:3860   */\n      tag_134\n        /* \"#utility.yul\":3854:3859   */\n      dup2\n        /* \"#utility.yul\":3828:3860   */\n      tag_74\n      jump\t// in\n    tag_134:\n        /* \"#utility.yul\":3725:3866   */\n      swap3\n      swap2\n      pop\n      pop\n      jump\t// out\n        /* \"#utility.yul\":3872:3948   */\n    tag_76:\n        /* \"#utility.yul\":3908:3915   */\n      0x00\n        /* \"#utility.yul\":3937:3942   */\n      dup2\n        /* \"#utility.yul\":3926:3942   */\n      swap1\n      pop\n        /* \"#utility.yul\":3872:3948   */\n      swap2\n      swap1\n      pop\n      jump\t// out\n        /* \"#utility.yul\":3954:4074   */\n    tag_77:\n        /* \"#utility.yul\":4026:4049   */\n      tag_137\n        /* \"#utility.yul\":4043:4048   */\n      dup2\n        /* \"#utility.yul\":4026:4049   */\n      tag_76\n      jump\t// in\n    tag_137:\n        /* \"#utility.yul\":4019:4024   */\n      dup2\n        /* \"#utility.yul\":4016:4050   */\n      eq\n        /* \"#utility.yul\":4006:4068   */\n      tag_138\n      jumpi\n        /* \"#utility.yul\":4064:4065   */\n      0x00\n        /* \"#utility.yul\":4061:4062   */\n      dup1\n        /* \"#utility.yul\":4054:4066   */\n      revert\n        /* \"#utility.yul\":4006:4068   */\n    tag_138:\n        /* \"#utility.yul\":3954:4074   */\n      pop\n      jump\t// out\n        /* \"#utility.yul\":4080:4221   */\n    tag_78:\n        /* \"#utility.yul\":4136:4141   */\n      0x00\n        /* \"#utility.yul\":4167:4173   */\n      dup2\n        /* \"#utility.yul\":4161:4174   */\n      mload\n        /* \"#utility.yul\":4152:4174   */\n      swap1\n      pop\n        /* \"#utility.yul\":4183:4215   */\n      tag_140\n        /* \"#utility.yul\":4209:4214   */\n      dup2\n        /* \"#utility.yul\":4183:4215   */\n      tag_77\n      jump\t// in\n    tag_140:\n        /* \"#utility.yul\":4080:4221   */\n      swap3\n      swap2\n      pop\n      pop\n      jump\t// out\n        /* \"#utility.yul\":4227:4370   */\n    tag_79:\n        /* \"#utility.yul\":4284:4289   */\n      0x00\n        /* \"#utility.yul\":4315:4321   */\n      dup2\n        /* \"#utility.yul\":4309:4322   */\n      mload\n        /* \"#utility.yul\":4300:4322   */\n      swap1\n      pop\n        /* \"#utility.yul\":4331:4364   */\n      tag_142\n        /* \"#utility.yul\":4358:4363   */\n      dup2\n        /* \"#utility.yul\":4331:4364   */\n      tag_68\n      jump\t// in\n    tag_142:\n        /* \"#utility.yul\":4227:4370   */\n      swap3\n      swap2\n      pop\n      pop\n      jump\t// out\n        /* \"#utility.yul\":4376:5347   */\n    tag_48:\n        /* \"#utility.yul\":4479:4485   */\n      0x00\n        /* \"#utility.yul\":4487:4493   */\n      dup1\n        /* \"#utility.yul\":4495:4501   */\n      0x00\n        /* \"#utility.yul\":4503:4509   */\n      dup1\n        /* \"#utility.yul\":4511:4517   */\n      0x00\n        /* \"#utility.yul\":4560:4563   */\n      0xa0\n        /* \"#utility.yul\":4548:4557   */\n      dup7\n        /* \"#utility.yul\":4539:4546   */\n      dup9\n        /* \"#utility.yul\":4535:4558   */\n      sub\n        /* \"#utility.yul\":4531:4564   */\n      slt\n        /* \"#utility.yul\":4528:4648   */\n      iszero\n      tag_144\n      jumpi\n        /* \"#utility.yul\":4567:4646   */\n      tag_145\n      tag_60\n      jump\t// in\n    tag_145:\n        /* \"#utility.yul\":4528:4648   */\n    tag_144:\n        /* \"#utility.yul\":4687:4688   */\n      0x00\n        /* \"#utility.yul\":4712:4775   */\n      tag_146\n        /* \"#utility.yul\":4767:4774   */\n      dup9\n        /* \"#utility.yul\":4758:4764   */\n      dup3\n        /* \"#utility.yul\":4747:4756   */\n      dup10\n        /* \"#utility.yul\":4743:4765   */\n      add\n        /* \"#utility.yul\":4712:4775   */\n      tag_75\n      jump\t// in\n    tag_146:\n        /* \"#utility.yul\":4702:4775   */\n      swap6\n      pop\n        /* \"#utility.yul\":4658:4785   */\n      pop\n        /* \"#utility.yul\":4824:4826   */\n      0x20\n        /* \"#utility.yul\":4850:4913   */\n      tag_147\n        /* \"#utility.yul\":4905:4912   */\n      dup9\n        /* \"#utility.yul\":4896:4902   */\n      dup3\n        /* \"#utility.yul\":4885:4894   */\n      dup10\n        /* \"#utility.yul\":4881:4903   */\n      add\n        /* \"#utility.yul\":4850:4913   */\n      tag_78\n      jump\t// in\n    tag_147:\n        /* \"#utility.yul\":4840:4913   */\n      swap5\n      pop\n        /* \"#utility.yul\":4795:4923   */\n      pop\n        /* \"#utility.yul\":4962:4964   */\n      0x40\n        /* \"#utility.yul\":4988:5052   */\n      tag_148\n        /* \"#utility.yul\":5044:5051   */\n      dup9\n        /* \"#utility.yul\":5035:5041   */\n      dup3\n        /* \"#utility.yul\":5024:5033   */\n      dup10\n        /* \"#utility.yul\":5020:5042   */\n      add\n        /* \"#utility.yul\":4988:5052   */\n      tag_79\n      jump\t// in\n    tag_148:\n        /* \"#utility.yul\":4978:5052   */\n      swap4\n      pop\n        /* \"#utility.yul\":4933:5062   */\n      pop\n        /* \"#utility.yul\":5101:5103   */\n      0x60\n        /* \"#utility.yul\":5127:5191   */\n      tag_149\n        /* \"#utility.yul\":5183:5190   */\n      dup9\n        /* \"#utility.yul\":5174:5180   */\n      dup3\n        /* \"#utility.yul\":5163:5172   */\n      dup10\n        /* \"#utility.yul\":5159:5181   */\n      add\n        /* \"#utility.yul\":5127:5191   */\n      tag_79\n      jump\t// in\n    tag_149:\n        /* \"#utility.yul\":5117:5191   */\n      swap3\n      pop\n        /* \"#utility.yul\":5072:5201   */\n      pop\n        /* \"#utility.yul\":5240:5243   */\n      0x80\n        /* \"#utility.yul\":5267:5330   */\n      tag_150\n        /* \"#utility.yul\":5322:5329   */\n      dup9\n        /* \"#utility.yul\":5313:5319   */\n      dup3\n        /* \"#utility.yul\":5302:5311   */\n      dup10\n        /* \"#utility.yul\":5298:5320   */\n      add\n        /* \"#utility.yul\":5267:5330   */\n      tag_75\n      jump\t// in\n    tag_150:\n        /* \"#utility.yul\":5257:5330   */\n      swap2\n      pop\n        /* \"#utility.yul\":5211:5340   */\n      pop\n        /* \"#utility.yul\":4376:5347   */\n      swap3\n      swap6\n      pop\n      swap3\n      swap6\n      swap1\n      swap4\n      pop\n      jump\t// out\n        /* \"#utility.yul\":5353:6344   */\n    tag_50:\n        /* \"#utility.yul\":5392:5399   */\n      0x00\n        /* \"#utility.yul\":5415:5434   */\n      tag_152\n        /* \"#utility.yul\":5432:5433   */\n      dup3\n        /* \"#utility.yul\":5415:5434   */\n      tag_76\n      jump\t// in\n    tag_152:\n        /* \"#utility.yul\":5410:5434   */\n      swap2\n      pop\n        /* \"#utility.yul\":5448:5467   */\n      tag_153\n        /* \"#utility.yul\":5465:5466   */\n      dup4\n        /* \"#utility.yul\":5448:5467   */\n      tag_76\n      jump\t// in\n    tag_153:\n        /* \"#utility.yul\":5443:5467   */\n      swap3\n      pop\n        /* \"#utility.yul\":5649:5650   */\n      dup3\n        /* \"#utility.yul\":5581:5647   */\n      0x7fffffffffffffffffffffffffffffffffffffffffffffffffffffffffffffff\n        /* \"#utility.yul\":5577:5651   */\n      div\n        /* \"#utility.yul\":5574:5575   */\n      dup3\n        /* \"#utility.yul\":5571:5652   */\n      gt\n        /* \"#utility.yul\":5566:5567   */\n      0x00\n        /* \"#utility.yul\":5563:5564   */\n      dup5\n        /* \"#utility.yul\":5559:5568   */\n      sgt\n        /* \"#utility.yul\":5555:5556   */\n      0x00\n        /* \"#utility.yul\":5552:5553   */\n      dup5\n        /* \"#utility.yul\":5548:5557   */\n      sgt\n        /* \"#utility.yul\":5544:5569   */\n      and\n        /* \"#utility.yul\":5540:5653   */\n      and\n        /* \"#utility.yul\":5537:5676   */\n      iszero\n      tag_154\n      jumpi\n        /* \"#utility.yul\":5656:5674   */\n      tag_155\n      tag_71\n      jump\t// in\n    tag_155:\n        /* \"#utility.yul\":5537:5676   */\n    tag_154:\n        /* \"#utility.yul\":5860:5861   */\n      dup2\n        /* \"#utility.yul\":5792:5858   */\n      0x8000000000000000000000000000000000000000000000000000000000000000\n        /* \"#utility.yul\":5787:5862   */\n      sdiv\n        /* \"#utility.yul\":5784:5785   */\n      dup4\n        /* \"#utility.yul\":5780:5863   */\n      slt\n        /* \"#utility.yul\":5775:5776   */\n      0x00\n        /* \"#utility.yul\":5772:5773   */\n      dup5\n        /* \"#utility.yul\":5768:5777   */\n      slt\n        /* \"#utility.yul\":5764:5765   */\n      0x00\n        /* \"#utility.yul\":5761:5762   */\n      dup5\n        /* \"#utility.yul\":5757:5766   */\n      sgt\n        /* \"#utility.yul\":5753:5778   */\n      and\n        /* \"#utility.yul\":5749:5864   */\n      and\n        /* \"#utility.yul\":5746:5887   */\n      iszero\n      tag_156\n      jumpi\n        /* \"#utility.yul\":5867:5885   */\n      tag_157\n      tag_71\n      jump\t// in\n    tag_157:\n        /* \"#utility.yul\":5746:5887   */\n    tag_156:\n        /* \"#utility.yul\":6071:6072   */\n      dup3\n        /* \"#utility.yul\":6003:6069   */\n      0x8000000000000000000000000000000000000000000000000000000000000000\n        /* \"#utility.yul\":5998:6073   */\n      sdiv\n        /* \"#utility.yul\":5995:5996   */\n      dup3\n        /* \"#utility.yul\":5991:6074   */\n      slt\n        /* \"#utility.yul\":5986:5987   */\n      0x00\n        /* \"#utility.yul\":5983:5984   */\n      dup5\n        /* \"#utility.yul\":5979:5988   */\n      sgt\n        /* \"#utility.yul\":5975:5976   */\n      0x00\n        /* \"#utility.yul\":5972:5973   */\n      dup5\n        /* \"#utility.yul\":5968:5977   */\n      slt\n        /* \"#utility.yul\":5964:5989   */\n      and\n        /* \"#utility.yul\":5960:6075   */\n      and\n        /* \"#utility.yul\":5957:6098   */\n      iszero\n      tag_158\n      jumpi\n        /* \"#utility.yul\":6078:6096   */\n      tag_159\n      tag_71\n      jump\t// in\n    tag_159:\n        /* \"#utility.yul\":5957:6098   */\n    tag_158:\n        /* \"#utility.yul\":6281:6282   */\n      dup3\n        /* \"#utility.yul\":6213:6279   */\n      0x7fffffffffffffffffffffffffffffffffffffffffffffffffffffffffffffff\n        /* \"#utility.yul\":6208:6283   */\n      sdiv\n        /* \"#utility.yul\":6205:6206   */\n      dup3\n        /* \"#utility.yul\":6201:6284   */\n      slt\n        /* \"#utility.yul\":6196:6197   */\n      0x00\n        /* \"#utility.yul\":6193:6194   */\n      dup5\n        /* \"#utility.yul\":6189:6198   */\n      slt\n        /* \"#utility.yul\":6185:6186   */\n      0x00\n        /* \"#utility.yul\":6182:6183   */\n      dup5\n        /* \"#utility.yul\":6178:6187   */\n      slt\n        /* \"#utility.yul\":6174:6199   */\n      and\n        /* \"#utility.yul\":6170:6285   */\n      and\n        /* \"#utility.yul\":6167:6308   */\n      iszero\n      tag_160\n      jumpi\n        /* \"#utility.yul\":6288:6306   */\n      tag_161\n      tag_71\n      jump\t// in\n    tag_161:\n        /* \"#utility.yul\":6167:6308   */\n    tag_160:\n        /* \"#utility.yul\":6336:6337   */\n      dup3\n        /* \"#utility.yul\":6333:6334   */\n      dup3\n        /* \"#utility.yul\":6329:6338   */\n      mul\n        /* \"#utility.yul\":6318:6338   */\n      swap1\n      pop\n        /* \"#utility.yul\":5353:6344   */\n      swap3\n      swap2\n      pop\n      pop\n      jump\t// out\n        /* \"#utility.yul\":6350:6519   */\n    tag_80:\n        /* \"#utility.yul\":6434:6445   */\n      0x00\n        /* \"#utility.yul\":6468:6474   */\n      dup3\n        /* \"#utility.yul\":6463:6466   */\n      dup3\n        /* \"#utility.yul\":6456:6475   */\n      mstore\n        /* \"#utility.yul\":6508:6512   */\n      0x20\n        /* \"#utility.yul\":6503:6506   */\n      dup3\n        /* \"#utility.yul\":6499:6513   */\n      add\n        /* \"#utility.yul\":6484:6513   */\n      swap1\n      pop\n        /* \"#utility.yul\":6350:6519   */\n      swap3\n      swap2\n      pop\n      pop\n      jump\t// out\n        /* \"#utility.yul\":6525:6693   */\n    tag_81:\n        /* \"#utility.yul\":6665:6685   */\n      0x4469646e27742073656e6420656e6f7567680000000000000000000000000000\n        /* \"#utility.yul\":6661:6662   */\n      0x00\n        /* \"#utility.yul\":6653:6659   */\n      dup3\n        /* \"#utility.yul\":6649:6663   */\n      add\n        /* \"#utility.yul\":6642:6686   */\n      mstore\n        /* \"#utility.yul\":6525:6693   */\n      pop\n      jump\t// out\n        /* \"#utility.yul\":6699:7065   */\n    tag_82:\n        /* \"#utility.yul\":6841:6844   */\n      0x00\n        /* \"#utility.yul\":6862:6929   */\n      tag_165\n        /* \"#utility.yul\":6926:6928   */\n      0x12\n        /* \"#utility.yul\":6921:6924   */\n      dup4\n        /* \"#utility.yul\":6862:6929   */\n      tag_80\n      jump\t// in\n    tag_165:\n        /* \"#utility.yul\":6855:6929   */\n      swap2\n      pop\n        /* \"#utility.yul\":6938:7031   */\n      tag_166\n        /* \"#utility.yul\":7027:7030   */\n      dup3\n        /* \"#utility.yul\":6938:7031   */\n      tag_81\n      jump\t// in\n    tag_166:\n        /* \"#utility.yul\":7056:7058   */\n      0x20\n        /* \"#utility.yul\":7051:7054   */\n      dup3\n        /* \"#utility.yul\":7047:7059   */\n      add\n        /* \"#utility.yul\":7040:7059   */\n      swap1\n      pop\n        /* \"#utility.yul\":6699:7065   */\n      swap2\n      swap1\n      pop\n      jump\t// out\n        /* \"#utility.yul\":7071:7490   */\n    tag_55:\n        /* \"#utility.yul\":7237:7241   */\n      0x00\n        /* \"#utility.yul\":7275:7277   */\n      0x20\n        /* \"#utility.yul\":7264:7273   */\n      dup3\n        /* \"#utility.yul\":7260:7278   */\n      add\n        /* \"#utility.yul\":7252:7278   */\n      swap1\n      pop\n        /* \"#utility.yul\":7324:7333   */\n      dup2\n        /* \"#utility.yul\":7318:7322   */\n      dup2\n        /* \"#utility.yul\":7314:7334   */\n      sub\n        /* \"#utility.yul\":7310:7311   */\n      0x00\n        /* \"#utility.yul\":7299:7308   */\n      dup4\n        /* \"#utility.yul\":7295:7312   */\n      add\n        /* \"#utility.yul\":7288:7335   */\n      mstore\n        /* \"#utility.yul\":7352:7483   */\n      tag_168\n        /* \"#utility.yul\":7478:7482   */\n      dup2\n        /* \"#utility.yul\":7352:7483   */\n      tag_82\n      jump\t// in\n    tag_168:\n        /* \"#utility.yul\":7344:7483   */\n      swap1\n      pop\n        /* \"#utility.yul\":7071:7490   */\n      swap2\n      swap1\n      pop\n      jump\t// out\n\n    auxdata: 0xa2646970667358221220b8cd4dbd619bec75e5f19d67073a436ae865ad7dddbad7386e595c1282f5568d64736f6c63430008080033\n}\n",
				"bytecode": {
					"linkReferences": {},
					"object": "60806040526802b5e3af16b188000060005534801561001d57600080fd5b506108b88061002d6000396000f3fe6080604052600436106100555760003560e01c80633e47d6f31461005a57806351b80e41146100975780636e5b6b28146100c257806398d5fdca146100ff578063b60d42881461012a578063dc0d3dff14610134575b600080fd5b34801561006657600080fd5b50610081600480360381019061007c9190610419565b610171565b60405161008e919061045f565b60405180910390f35b3480156100a357600080fd5b506100ac610189565b6040516100b9919061045f565b60405180910390f35b3480156100ce57600080fd5b506100e960048036038101906100e491906104a6565b61018f565b6040516100f6919061045f565b60405180910390f35b34801561010b57600080fd5b506101146101c9565b604051610121919061045f565b60405180910390f35b610132610281565b005b34801561014057600080fd5b5061015b600480360381019061015691906104a6565b610377565b60405161016891906104e2565b60405180910390f35b60026020528060005260406000206000915090505481565b60005481565b60008061019a6101c9565b90506000670de0b6b3a764000084836101b3919061052c565b6101bd91906105b5565b90508092505050919050565b600080738a753747a1fa494ec906ce90e9f37563a8af630e905060008173ffffffffffffffffffffffffffffffffffffffff1663feaf968c6040518163ffffffff1660e01b815260040160a06040518083038186803b15801561022b57600080fd5b505afa15801561023f573d6000803e3d6000fd5b505050506040513d601f19601f820116820180604052508101906102639190610673565b5050509150506402540be4008161027a91906106ee565b9250505090565b60005461028d3461018f565b10156102ce576040517f08c379a00000000000000000000000000000000000000000000000000000000081526004016102c590610862565b60405180910390fd5b6001339080600181540180825580915050600190039060005260206000200160009091909190916101000a81548173ffffffffffffffffffffffffffffffffffffffff021916908373ffffffffffffffffffffffffffffffffffffffff16021790555034600260003373ffffffffffffffffffffffffffffffffffffffff1673ffffffffffffffffffffffffffffffffffffffff16815260200190815260200160002081905550565b6001818154811061038757600080fd5b906000526020600020016000915054906101000a900473ffffffffffffffffffffffffffffffffffffffff1681565b600080fd5b600073ffffffffffffffffffffffffffffffffffffffff82169050919050565b60006103e6826103bb565b9050919050565b6103f6816103db565b811461040157600080fd5b50565b600081359050610413816103ed565b92915050565b60006020828403121561042f5761042e6103b6565b5b600061043d84828501610404565b91505092915050565b6000819050919050565b61045981610446565b82525050565b60006020820190506104746000830184610450565b92915050565b61048381610446565b811461048e57600080fd5b50565b6000813590506104a08161047a565b92915050565b6000602082840312156104bc576104bb6103b6565b5b60006104ca84828501610491565b91505092915050565b6104dc816103db565b82525050565b60006020820190506104f760008301846104d3565b92915050565b7f4e487b7100000000000000000000000000000000000000000000000000000000600052601160045260246000fd5b600061053782610446565b915061054283610446565b9250817fffffffffffffffffffffffffffffffffffffffffffffffffffffffffffffffff048311821515161561057b5761057a6104fd565b5b828202905092915050565b7f4e487b7100000000000000000000000000000000000000000000000000000000600052601260045260246000fd5b60006105c082610446565b91506105cb83610446565b9250826105db576105da610586565b5b828204905092915050565b600069ffffffffffffffffffff82169050919050565b610605816105e6565b811461061057600080fd5b50565b600081519050610622816105fc565b92915050565b6000819050919050565b61063b81610628565b811461064657600080fd5b50565b60008151905061065881610632565b92915050565b60008151905061066d8161047a565b92915050565b600080600080600060a0868803121561068f5761068e6103b6565b5b600061069d88828901610613565b95505060206106ae88828901610649565b94505060406106bf8882890161065e565b93505060606106d08882890161065e565b92505060806106e188828901610613565b9150509295509295909350565b60006106f982610628565b915061070483610628565b9250827f7fffffffffffffffffffffffffffffffffffffffffffffffffffffffffffffff0482116000841360008413161615610743576107426104fd565b5b817f800000000000000000000000000000000000000000000000000000000000000005831260008412600084131616156107805761077f6104fd565b5b827f800000000000000000000000000000000000000000000000000000000000000005821260008413600084121616156107bd576107bc6104fd565b5b827f7fffffffffffffffffffffffffffffffffffffffffffffffffffffffffffffff05821260008412600084121616156107fa576107f96104fd565b5b828202905092915050565b600082825260208201905092915050565b7f4469646e27742073656e6420656e6f7567680000000000000000000000000000600082015250565b600061084c601283610805565b915061085782610816565b602082019050919050565b6000602082019050818103600083015261087b8161083f565b905091905056fea2646970667358221220b8cd4dbd619bec75e5f19d67073a436ae865ad7dddbad7386e595c1282f5568d64736f6c63430008080033",
					"opcodes": "PUSH1 0x80 PUSH1 0x40 MSTORE PUSH9 0x2B5E3AF16B1880000 PUSH1 0x0 SSTORE CALLVALUE DUP1 ISZERO PUSH2 0x1D JUMPI PUSH1 0x0 DUP1 REVERT JUMPDEST POP PUSH2 0x8B8 DUP1 PUSH2 0x2D PUSH1 0x0 CODECOPY PUSH1 0x0 RETURN INVALID PUSH1 0x80 PUSH1 0x40 MSTORE PUSH1 0x4 CALLDATASIZE LT PUSH2 0x55 JUMPI PUSH1 0x0 CALLDATALOAD PUSH1 0xE0 SHR DUP1 PUSH4 0x3E47D6F3 EQ PUSH2 0x5A JUMPI DUP1 PUSH4 0x51B80E41 EQ PUSH2 0x97 JUMPI DUP1 PUSH4 0x6E5B6B28 EQ PUSH2 0xC2 JUMPI DUP1 PUSH4 0x98D5FDCA EQ PUSH2 0xFF JUMPI DUP1 PUSH4 0xB60D4288 EQ PUSH2 0x12A JUMPI DUP1 PUSH4 0xDC0D3DFF EQ PUSH2 0x134 JUMPI JUMPDEST PUSH1 0x0 DUP1 REVERT JUMPDEST CALLVALUE DUP1 ISZERO PUSH2 0x66 JUMPI PUSH1 0x0 DUP1 REVERT JUMPDEST POP PUSH2 0x81 PUSH1 0x4 DUP1 CALLDATASIZE SUB DUP2 ADD SWAP1 PUSH2 0x7C SWAP2 SWAP1 PUSH2 0x419 JUMP JUMPDEST PUSH2 0x171 JUMP JUMPDEST PUSH1 0x40 MLOAD PUSH2 0x8E SWAP2 SWAP1 PUSH2 0x45F JUMP JUMPDEST PUSH1 0x40 MLOAD DUP1 SWAP2 SUB SWAP1 RETURN JUMPDEST CALLVALUE DUP1 ISZERO PUSH2 0xA3 JUMPI PUSH1 0x0 DUP1 REVERT JUMPDEST POP PUSH2 0xAC PUSH2 0x189 JUMP JUMPDEST PUSH1 0x40 MLOAD PUSH2 0xB9 SWAP2 SWAP1 PUSH2 0x45F JUMP JUMPDEST PUSH1 0x40 MLOAD DUP1 SWAP2 SUB SWAP1 RETURN JUMPDEST CALLVALUE DUP1 ISZERO PUSH2 0xCE JUMPI PUSH1 0x0 DUP1 REVERT JUMPDEST POP PUSH2 0xE9 PUSH1 0x4 DUP1 CALLDATASIZE SUB DUP2 ADD SWAP1 PUSH2 0xE4 SWAP2 SWAP1 PUSH2 0x4A6 JUMP JUMPDEST PUSH2 0x18F JUMP JUMPDEST PUSH1 0x40 MLOAD PUSH2 0xF6 SWAP2 SWAP1 PUSH2 0x45F JUMP JUMPDEST PUSH1 0x40 MLOAD DUP1 SWAP2 SUB SWAP1 RETURN JUMPDEST CALLVALUE DUP1 ISZERO PUSH2 0x10B JUMPI PUSH1 0x0 DUP1 REVERT JUMPDEST POP PUSH2 0x114 PUSH2 0x1C9 JUMP JUMPDEST PUSH1 0x40 MLOAD PUSH2 0x121 SWAP2 SWAP1 PUSH2 0x45F JUMP JUMPDEST PUSH1 0x40 MLOAD DUP1 SWAP2 SUB SWAP1 RETURN JUMPDEST PUSH2 0x132 PUSH2 0x281 JUMP JUMPDEST STOP JUMPDEST CALLVALUE DUP1 ISZERO PUSH2 0x140 JUMPI PUSH1 0x0 DUP1 REVERT JUMPDEST POP PUSH2 0x15B PUSH1 0x4 DUP1 CALLDATASIZE SUB DUP2 ADD SWAP1 PUSH2 0x156 SWAP2 SWAP1 PUSH2 0x4A6 JUMP JUMPDEST PUSH2 0x377 JUMP JUMPDEST PUSH1 0x40 MLOAD PUSH2 0x168 SWAP2 SWAP1 PUSH2 0x4E2 JUMP JUMPDEST PUSH1 0x40 MLOAD DUP1 SWAP2 SUB SWAP1 RETURN JUMPDEST PUSH1 0x2 PUSH1 0x20 MSTORE DUP1 PUSH1 0x0 MSTORE PUSH1 0x40 PUSH1 0x0 KECCAK256 PUSH1 0x0 SWAP2 POP SWAP1 POP SLOAD DUP2 JUMP JUMPDEST PUSH1 0x0 SLOAD DUP2 JUMP JUMPDEST PUSH1 0x0 DUP1 PUSH2 0x19A PUSH2 0x1C9 JUMP JUMPDEST SWAP1 POP PUSH1 0x0 PUSH8 0xDE0B6B3A7640000 DUP5 DUP4 PUSH2 0x1B3 SWAP2 SWAP1 PUSH2 0x52C JUMP JUMPDEST PUSH2 0x1BD SWAP2 SWAP1 PUSH2 0x5B5 JUMP JUMPDEST SWAP1 POP DUP1 SWAP3 POP POP POP SWAP2 SWAP1 POP JUMP JUMPDEST PUSH1 0x0 DUP1 PUSH20 0x8A753747A1FA494EC906CE90E9F37563A8AF630E SWAP1 POP PUSH1 0x0 DUP2 PUSH20 0xFFFFFFFFFFFFFFFFFFFFFFFFFFFFFFFFFFFFFFFF AND PUSH4 0xFEAF968C PUSH1 0x40 MLOAD DUP2 PUSH4 0xFFFFFFFF AND PUSH1 0xE0 SHL DUP2 MSTORE PUSH1 0x4 ADD PUSH1 0xA0 PUSH1 0x40 MLOAD DUP1 DUP4 SUB DUP2 DUP7 DUP1 EXTCODESIZE ISZERO DUP1 ISZERO PUSH2 0x22B JUMPI PUSH1 0x0 DUP1 REVERT JUMPDEST POP GAS STATICCALL ISZERO DUP1 ISZERO PUSH2 0x23F JUMPI RETURNDATASIZE PUSH1 0x0 DUP1 RETURNDATACOPY RETURNDATASIZE PUSH1 0x0 REVERT JUMPDEST POP POP POP POP PUSH1 0x40 MLOAD RETURNDATASIZE PUSH1 0x1F NOT PUSH1 0x1F DUP3 ADD AND DUP3 ADD DUP1 PUSH1 0x40 MSTORE POP DUP2 ADD SWAP1 PUSH2 0x263 SWAP2 SWAP1 PUSH2 0x673 JUMP JUMPDEST POP POP POP SWAP2 POP POP PUSH5 0x2540BE400 DUP2 PUSH2 0x27A SWAP2 SWAP1 PUSH2 0x6EE JUMP JUMPDEST SWAP3 POP POP POP SWAP1 JUMP JUMPDEST PUSH1 0x0 SLOAD PUSH2 0x28D CALLVALUE PUSH2 0x18F JUMP JUMPDEST LT ISZERO PUSH2 0x2CE JUMPI PUSH1 0x40 MLOAD PUSH32 0x8C379A000000000000000000000000000000000000000000000000000000000 DUP2 MSTORE PUSH1 0x4 ADD PUSH2 0x2C5 SWAP1 PUSH2 0x862 JUMP JUMPDEST PUSH1 0x40 MLOAD DUP1 SWAP2 SUB SWAP1 REVERT JUMPDEST PUSH1 0x1 CALLER SWAP1 DUP1 PUSH1 0x1 DUP2 SLOAD ADD DUP1 DUP3 SSTORE DUP1 SWAP2 POP POP PUSH1 0x1 SWAP1 SUB SWAP1 PUSH1 0x0 MSTORE PUSH1 0x20 PUSH1 0x0 KECCAK256 ADD PUSH1 0x0 SWAP1 SWAP2 SWAP1 SWAP2 SWAP1 SWAP2 PUSH2 0x100 EXP DUP2 SLOAD DUP2 PUSH20 0xFFFFFFFFFFFFFFFFFFFFFFFFFFFFFFFFFFFFFFFF MUL NOT AND SWAP1 DUP4 PUSH20 0xFFFFFFFFFFFFFFFFFFFFFFFFFFFFFFFFFFFFFFFF AND MUL OR SWAP1 SSTORE POP CALLVALUE PUSH1 0x2 PUSH1 0x0 CALLER PUSH20 0xFFFFFFFFFFFFFFFFFFFFFFFFFFFFFFFFFFFFFFFF AND PUSH20 0xFFFFFFFFFFFFFFFFFFFFFFFFFFFFFFFFFFFFFFFF AND DUP2 MSTORE PUSH1 0x20 ADD SWAP1 DUP2 MSTORE PUSH1 0x20 ADD PUSH1 0x0 KECCAK256 DUP2 SWAP1 SSTORE POP JUMP JUMPDEST PUSH1 0x1 DUP2 DUP2 SLOAD DUP2 LT PUSH2 0x387 JUMPI PUSH1 0x0 DUP1 REVERT JUMPDEST SWAP1 PUSH1 0x0 MSTORE PUSH1 0x20 PUSH1 0x0 KECCAK256 ADD PUSH1 0x0 SWAP2 POP SLOAD SWAP1 PUSH2 0x100 EXP SWAP1 DIV PUSH20 0xFFFFFFFFFFFFFFFFFFFFFFFFFFFFFFFFFFFFFFFF AND DUP2 JUMP JUMPDEST PUSH1 0x0 DUP1 REVERT JUMPDEST PUSH1 0x0 PUSH20 0xFFFFFFFFFFFFFFFFFFFFFFFFFFFFFFFFFFFFFFFF DUP3 AND SWAP1 POP SWAP2 SWAP1 POP JUMP JUMPDEST PUSH1 0x0 PUSH2 0x3E6 DUP3 PUSH2 0x3BB JUMP JUMPDEST SWAP1 POP SWAP2 SWAP1 POP JUMP JUMPDEST PUSH2 0x3F6 DUP2 PUSH2 0x3DB JUMP JUMPDEST DUP2 EQ PUSH2 0x401 JUMPI PUSH1 0x0 DUP1 REVERT JUMPDEST POP JUMP JUMPDEST PUSH1 0x0 DUP2 CALLDATALOAD SWAP1 POP PUSH2 0x413 DUP2 PUSH2 0x3ED JUMP JUMPDEST SWAP3 SWAP2 POP POP JUMP JUMPDEST PUSH1 0x0 PUSH1 0x20 DUP3 DUP5 SUB SLT ISZERO PUSH2 0x42F JUMPI PUSH2 0x42E PUSH2 0x3B6 JUMP JUMPDEST JUMPDEST PUSH1 0x0 PUSH2 0x43D DUP5 DUP3 DUP6 ADD PUSH2 0x404 JUMP JUMPDEST SWAP2 POP POP SWAP3 SWAP2 POP POP JUMP JUMPDEST PUSH1 0x0 DUP2 SWAP1 POP SWAP2 SWAP1 POP JUMP JUMPDEST PUSH2 0x459 DUP2 PUSH2 0x446 JUMP JUMPDEST DUP3 MSTORE POP POP JUMP JUMPDEST PUSH1 0x0 PUSH1 0x20 DUP3 ADD SWAP1 POP PUSH2 0x474 PUSH1 0x0 DUP4 ADD DUP5 PUSH2 0x450 JUMP JUMPDEST SWAP3 SWAP2 POP POP JUMP JUMPDEST PUSH2 0x483 DUP2 PUSH2 0x446 JUMP JUMPDEST DUP2 EQ PUSH2 0x48E JUMPI PUSH1 0x0 DUP1 REVERT JUMPDEST POP JUMP JUMPDEST PUSH1 0x0 DUP2 CALLDATALOAD SWAP1 POP PUSH2 0x4A0 DUP2 PUSH2 0x47A JUMP JUMPDEST SWAP3 SWAP2 POP POP JUMP JUMPDEST PUSH1 0x0 PUSH1 0x20 DUP3 DUP5 SUB SLT ISZERO PUSH2 0x4BC JUMPI PUSH2 0x4BB PUSH2 0x3B6 JUMP JUMPDEST JUMPDEST PUSH1 0x0 PUSH2 0x4CA DUP5 DUP3 DUP6 ADD PUSH2 0x491 JUMP JUMPDEST SWAP2 POP POP SWAP3 SWAP2 POP POP JUMP JUMPDEST PUSH2 0x4DC DUP2 PUSH2 0x3DB JUMP JUMPDEST DUP3 MSTORE POP POP JUMP JUMPDEST PUSH1 0x0 PUSH1 0x20 DUP3 ADD SWAP1 POP PUSH2 0x4F7 PUSH1 0x0 DUP4 ADD DUP5 PUSH2 0x4D3 JUMP JUMPDEST SWAP3 SWAP2 POP POP JUMP JUMPDEST PUSH32 0x4E487B7100000000000000000000000000000000000000000000000000000000 PUSH1 0x0 MSTORE PUSH1 0x11 PUSH1 0x4 MSTORE PUSH1 0x24 PUSH1 0x0 REVERT JUMPDEST PUSH1 0x0 PUSH2 0x537 DUP3 PUSH2 0x446 JUMP JUMPDEST SWAP2 POP PUSH2 0x542 DUP4 PUSH2 0x446 JUMP JUMPDEST SWAP3 POP DUP2 PUSH32 0xFFFFFFFFFFFFFFFFFFFFFFFFFFFFFFFFFFFFFFFFFFFFFFFFFFFFFFFFFFFFFFFF DIV DUP4 GT DUP3 ISZERO ISZERO AND ISZERO PUSH2 0x57B JUMPI PUSH2 0x57A PUSH2 0x4FD JUMP JUMPDEST JUMPDEST DUP3 DUP3 MUL SWAP1 POP SWAP3 SWAP2 POP POP JUMP JUMPDEST PUSH32 0x4E487B7100000000000000000000000000000000000000000000000000000000 PUSH1 0x0 MSTORE PUSH1 0x12 PUSH1 0x4 MSTORE PUSH1 0x24 PUSH1 0x0 REVERT JUMPDEST PUSH1 0x0 PUSH2 0x5C0 DUP3 PUSH2 0x446 JUMP JUMPDEST SWAP2 POP PUSH2 0x5CB DUP4 PUSH2 0x446 JUMP JUMPDEST SWAP3 POP DUP3 PUSH2 0x5DB JUMPI PUSH2 0x5DA PUSH2 0x586 JUMP JUMPDEST JUMPDEST DUP3 DUP3 DIV SWAP1 POP SWAP3 SWAP2 POP POP JUMP JUMPDEST PUSH1 0x0 PUSH10 0xFFFFFFFFFFFFFFFFFFFF DUP3 AND SWAP1 POP SWAP2 SWAP1 POP JUMP JUMPDEST PUSH2 0x605 DUP2 PUSH2 0x5E6 JUMP JUMPDEST DUP2 EQ PUSH2 0x610 JUMPI PUSH1 0x0 DUP1 REVERT JUMPDEST POP JUMP JUMPDEST PUSH1 0x0 DUP2 MLOAD SWAP1 POP PUSH2 0x622 DUP2 PUSH2 0x5FC JUMP JUMPDEST SWAP3 SWAP2 POP POP JUMP JUMPDEST PUSH1 0x0 DUP2 SWAP1 POP SWAP2 SWAP1 POP JUMP JUMPDEST PUSH2 0x63B DUP2 PUSH2 0x628 JUMP JUMPDEST DUP2 EQ PUSH2 0x646 JUMPI PUSH1 0x0 DUP1 REVERT JUMPDEST POP JUMP JUMPDEST PUSH1 0x0 DUP2 MLOAD SWAP1 POP PUSH2 0x658 DUP2 PUSH2 0x632 JUMP JUMPDEST SWAP3 SWAP2 POP POP JUMP JUMPDEST PUSH1 0x0 DUP2 MLOAD SWAP1 POP PUSH2 0x66D DUP2 PUSH2 0x47A JUMP JUMPDEST SWAP3 SWAP2 POP POP JUMP JUMPDEST PUSH1 0x0 DUP1 PUSH1 0x0 DUP1 PUSH1 0x0 PUSH1 0xA0 DUP7 DUP9 SUB SLT ISZERO PUSH2 0x68F JUMPI PUSH2 0x68E PUSH2 0x3B6 JUMP JUMPDEST JUMPDEST PUSH1 0x0 PUSH2 0x69D DUP9 DUP3 DUP10 ADD PUSH2 0x613 JUMP JUMPDEST SWAP6 POP POP PUSH1 0x20 PUSH2 0x6AE DUP9 DUP3 DUP10 ADD PUSH2 0x649 JUMP JUMPDEST SWAP5 POP POP PUSH1 0x40 PUSH2 0x6BF DUP9 DUP3 DUP10 ADD PUSH2 0x65E JUMP JUMPDEST SWAP4 POP POP PUSH1 0x60 PUSH2 0x6D0 DUP9 DUP3 DUP10 ADD PUSH2 0x65E JUMP JUMPDEST SWAP3 POP POP PUSH1 0x80 PUSH2 0x6E1 DUP9 DUP3 DUP10 ADD PUSH2 0x613 JUMP JUMPDEST SWAP2 POP POP SWAP3 SWAP6 POP SWAP3 SWAP6 SWAP1 SWAP4 POP JUMP JUMPDEST PUSH1 0x0 PUSH2 0x6F9 DUP3 PUSH2 0x628 JUMP JUMPDEST SWAP2 POP PUSH2 0x704 DUP4 PUSH2 0x628 JUMP JUMPDEST SWAP3 POP DUP3 PUSH32 0x7FFFFFFFFFFFFFFFFFFFFFFFFFFFFFFFFFFFFFFFFFFFFFFFFFFFFFFFFFFFFFFF DIV DUP3 GT PUSH1 0x0 DUP5 SGT PUSH1 0x0 DUP5 SGT AND AND ISZERO PUSH2 0x743 JUMPI PUSH2 0x742 PUSH2 0x4FD JUMP JUMPDEST JUMPDEST DUP2 PUSH32 0x8000000000000000000000000000000000000000000000000000000000000000 SDIV DUP4 SLT PUSH1 0x0 DUP5 SLT PUSH1 0x0 DUP5 SGT AND AND ISZERO PUSH2 0x780 JUMPI PUSH2 0x77F PUSH2 0x4FD JUMP JUMPDEST JUMPDEST DUP3 PUSH32 0x8000000000000000000000000000000000000000000000000000000000000000 SDIV DUP3 SLT PUSH1 0x0 DUP5 SGT PUSH1 0x0 DUP5 SLT AND AND ISZERO PUSH2 0x7BD JUMPI PUSH2 0x7BC PUSH2 0x4FD JUMP JUMPDEST JUMPDEST DUP3 PUSH32 0x7FFFFFFFFFFFFFFFFFFFFFFFFFFFFFFFFFFFFFFFFFFFFFFFFFFFFFFFFFFFFFFF SDIV DUP3 SLT PUSH1 0x0 DUP5 SLT PUSH1 0x0 DUP5 SLT AND AND ISZERO PUSH2 0x7FA JUMPI PUSH2 0x7F9 PUSH2 0x4FD JUMP JUMPDEST JUMPDEST DUP3 DUP3 MUL SWAP1 POP SWAP3 SWAP2 POP POP JUMP JUMPDEST PUSH1 0x0 DUP3 DUP3 MSTORE PUSH1 0x20 DUP3 ADD SWAP1 POP SWAP3 SWAP2 POP POP JUMP JUMPDEST PUSH32 0x4469646E27742073656E6420656E6F7567680000000000000000000000000000 PUSH1 0x0 DUP3 ADD MSTORE POP JUMP JUMPDEST PUSH1 0x0 PUSH2 0x84C PUSH1 0x12 DUP4 PUSH2 0x805 JUMP JUMPDEST SWAP2 POP PUSH2 0x857 DUP3 PUSH2 0x816 JUMP JUMPDEST PUSH1 0x20 DUP3 ADD SWAP1 POP SWAP2 SWAP1 POP JUMP JUMPDEST PUSH1 0x0 PUSH1 0x20 DUP3 ADD SWAP1 POP DUP2 DUP2 SUB PUSH1 0x0 DUP4 ADD MSTORE PUSH2 0x87B DUP2 PUSH2 0x83F JUMP JUMPDEST SWAP1 POP SWAP2 SWAP1 POP JUMP INVALID LOG2 PUSH5 0x6970667358 0x22 SLT KECCAK256 0xB8 0xCD 0x4D 0xBD PUSH2 0x9BEC PUSH22 0xE5F19D67073A436AE865AD7DDDBAD7386E595C1282F5 JUMP DUP14 PUSH5 0x736F6C6343 STOP ADDMOD ADDMOD STOP CALLER "
				},
				"gasEstimates": {
					"creation": {
						"codeDepositCost": "446400",
						"executionCost": "22586",
						"totalCost": "468986"
					},
					"external": {
						"addressToAmountFunded(address)": "2792",
						"fund()": "infinite",
						"funders(uint256)": "5044",
						"getConversionRate(uint256)": "infinite",
						"getPrice()": "infinite",
						"minUsd()": "2429"
					}
				},
				"methodIdentifiers": {
					"addressToAmountFunded(address)": "3e47d6f3",
					"fund()": "b60d4288",
					"funders(uint256)": "dc0d3dff",
					"getConversionRate(uint256)": "6e5b6b28",
					"getPrice()": "98d5fdca",
					"minUsd()": "51b80e41"
				}
			},
			"storageLayout": {
				"storage": [
					{
						"astId": 53,
						"contract": "Contracts/FundMe.sol:FundMe",
						"label": "minUsd",
						"offset": 0,
						"slot": "0",
						"type": "t_uint256"
					},
					{
						"astId": 56,
						"contract": "Contracts/FundMe.sol:FundMe",
						"label": "funders",
						"offset": 0,
						"slot": "1",
						"type": "t_array(t_address)dyn_storage"
					},
					{
						"astId": 60,
						"contract": "Contracts/FundMe.sol:FundMe",
						"label": "addressToAmountFunded",
						"offset": 0,
						"slot": "2",
						"type": "t_mapping(t_address,t_uint256)"
					}
				],
				"types": {
					"t_address": {
						"encoding": "inplace",
						"label": "address",
						"numberOfBytes": "20"
					},
					"t_array(t_address)dyn_storage": {
						"base": "t_address",
						"encoding": "dynamic_array",
						"label": "address[]",
						"numberOfBytes": "32"
					},
					"t_mapping(t_address,t_uint256)": {
						"encoding": "mapping",
						"key": "t_address",
						"label": "mapping(address => uint256)",
						"numberOfBytes": "32",
						"value": "t_uint256"
					},
					"t_uint256": {
						"encoding": "inplace",
						"label": "uint256",
						"numberOfBytes": "32"
					}
				}
			},
			"userdoc": {
				"kind": "user",
				"methods": {},
				"version": 1
			}
		}
	}
}