{
	"Contracts/FundMe.sol": {
		"FundMe": {
			"abi": [
				{
					"inputs": [
						{
							"internalType": "address",
							"name": "",
							"type": "address"
						}
					],
					"name": "addressToAmountFunded",
					"outputs": [
						{
							"internalType": "uint256",
							"name": "",
							"type": "uint256"
						}
					],
					"stateMutability": "view",
					"type": "function"
				},
				{
					"inputs": [],
					"name": "fund",
					"outputs": [],
					"stateMutability": "payable",
					"type": "function"
				},
				{
					"inputs": [
						{
							"internalType": "uint256",
							"name": "",
							"type": "uint256"
						}
					],
					"name": "funders",
					"outputs": [
						{
							"internalType": "address",
							"name": "",
							"type": "address"
						}
					],
					"stateMutability": "view",
					"type": "function"
				},
				{
					"inputs": [],
					"name": "minUsd",
					"outputs": [
						{
							"internalType": "uint256",
							"name": "",
							"type": "uint256"
						}
					],
					"stateMutability": "view",
					"type": "function"
				},
				{
					"inputs": [],
					"name": "withdraw",
					"outputs": [],
					"stateMutability": "nonpayable",
					"type": "function"
				}
			],
			"devdoc": {
				"kind": "dev",
				"methods": {},
				"version": 1
			},
			"evm": {
				"assembly": "    /* \"Contracts/FundMe.sol\":172:2798  contract FundMe {... */\n  mstore(0x40, 0x80)\n    /* \"Contracts/FundMe.sol\":409:418  50 * 1e18 */\n  0x02b5e3af16b1880000\n    /* \"Contracts/FundMe.sol\":385:418  uint256 public minUsd = 50 * 1e18 */\n  0x00\n  sstore\n    /* \"Contracts/FundMe.sol\":172:2798  contract FundMe {... */\n  callvalue\n  dup1\n  iszero\n  tag_1\n  jumpi\n  0x00\n  dup1\n  revert\ntag_1:\n  pop\n  dataSize(sub_0)\n  dup1\n  dataOffset(sub_0)\n  0x00\n  codecopy\n  0x00\n  return\nstop\n\nsub_0: assembly {\n        /* \"Contracts/FundMe.sol\":172:2798  contract FundMe {... */\n      mstore(0x40, 0x80)\n      jumpi(tag_1, lt(calldatasize, 0x04))\n      shr(0xe0, calldataload(0x00))\n      dup1\n      0x3ccfd60b\n      eq\n      tag_2\n      jumpi\n      dup1\n      0x3e47d6f3\n      eq\n      tag_3\n      jumpi\n      dup1\n      0x51b80e41\n      eq\n      tag_4\n      jumpi\n      dup1\n      0xb60d4288\n      eq\n      tag_5\n      jumpi\n      dup1\n      0xdc0d3dff\n      eq\n      tag_6\n      jumpi\n    tag_1:\n      0x00\n      dup1\n      revert\n        /* \"Contracts/FundMe.sol\":1064:2794  function withdraw() public {... */\n    tag_2:\n      callvalue\n      dup1\n      iszero\n      tag_7\n      jumpi\n      0x00\n      dup1\n      revert\n    tag_7:\n      pop\n      tag_8\n      tag_9\n      jump\t// in\n    tag_8:\n      stop\n        /* \"Contracts/FundMe.sol\":455:511  mapping(address => uint256) public addressToAmountFunded */\n    tag_3:\n      callvalue\n      dup1\n      iszero\n      tag_10\n      jumpi\n      0x00\n      dup1\n      revert\n    tag_10:\n      pop\n      tag_11\n      0x04\n      dup1\n      calldatasize\n      sub\n      dup2\n      add\n      swap1\n      tag_12\n      swap2\n      swap1\n      tag_13\n      jump\t// in\n    tag_12:\n      tag_14\n      jump\t// in\n    tag_11:\n      mload(0x40)\n      tag_15\n      swap2\n      swap1\n      tag_16\n      jump\t// in\n    tag_15:\n      mload(0x40)\n      dup1\n      swap2\n      sub\n      swap1\n      return\n        /* \"Contracts/FundMe.sol\":385:418  uint256 public minUsd = 50 * 1e18 */\n    tag_4:\n      callvalue\n      dup1\n      iszero\n      tag_17\n      jumpi\n      0x00\n      dup1\n      revert\n    tag_17:\n      pop\n      tag_18\n      tag_19\n      jump\t// in\n    tag_18:\n      mload(0x40)\n      tag_20\n      swap2\n      swap1\n      tag_16\n      jump\t// in\n    tag_20:\n      mload(0x40)\n      dup1\n      swap2\n      sub\n      swap1\n      return\n        /* \"Contracts/FundMe.sol\":623:1058  function fund() public payable {... */\n    tag_5:\n      tag_21\n      tag_22\n      jump\t// in\n    tag_21:\n      stop\n        /* \"Contracts/FundMe.sol\":425:449  address[] public funders */\n    tag_6:\n      callvalue\n      dup1\n      iszero\n      tag_23\n      jumpi\n      0x00\n      dup1\n      revert\n    tag_23:\n      pop\n      tag_24\n      0x04\n      dup1\n      calldatasize\n      sub\n      dup2\n      add\n      swap1\n      tag_25\n      swap2\n      swap1\n      tag_26\n      jump\t// in\n    tag_25:\n      tag_27\n      jump\t// in\n    tag_24:\n      mload(0x40)\n      tag_28\n      swap2\n      swap1\n      tag_29\n      jump\t// in\n    tag_28:\n      mload(0x40)\n      dup1\n      swap2\n      sub\n      swap1\n      return\n        /* \"Contracts/FundMe.sol\":1064:2794  function withdraw() public {... */\n    tag_9:\n        /* \"Contracts/FundMe.sol\":1218:1227  uint256 i */\n      0x00\n        /* \"Contracts/FundMe.sol\":1214:1357  for(uint256 i = 0; i < funders.length; i++) {... */\n    tag_31:\n        /* \"Contracts/FundMe.sol\":1237:1244  funders */\n      0x01\n        /* \"Contracts/FundMe.sol\":1237:1251  funders.length */\n      dup1\n      sload\n      swap1\n      pop\n        /* \"Contracts/FundMe.sol\":1233:1234  i */\n      dup2\n        /* \"Contracts/FundMe.sol\":1233:1251  i < funders.length */\n      lt\n        /* \"Contracts/FundMe.sol\":1214:1357  for(uint256 i = 0; i < funders.length; i++) {... */\n      iszero\n      tag_32\n      jumpi\n        /* \"Contracts/FundMe.sol\":1272:1286  address funder */\n      0x00\n        /* \"Contracts/FundMe.sol\":1289:1296  funders */\n      0x01\n        /* \"Contracts/FundMe.sol\":1297:1298  i */\n      dup3\n        /* \"Contracts/FundMe.sol\":1289:1299  funders[i] */\n      dup2\n      sload\n      dup2\n      lt\n      tag_34\n      jumpi\n      tag_35\n      tag_36\n      jump\t// in\n    tag_35:\n    tag_34:\n      swap1\n      0x00\n      mstore\n      keccak256(0x00, 0x20)\n      add\n      0x00\n      swap1\n      sload\n      swap1\n      0x0100\n      exp\n      swap1\n      div\n      0xffffffffffffffffffffffffffffffffffffffff\n      and\n        /* \"Contracts/FundMe.sol\":1272:1299  address funder = funders[i] */\n      swap1\n      pop\n        /* \"Contracts/FundMe.sol\":1345:1346  0 */\n      0x00\n        /* \"Contracts/FundMe.sol\":1313:1334  addressToAmountFunded */\n      0x02\n        /* \"Contracts/FundMe.sol\":1313:1342  addressToAmountFunded[funder] */\n      0x00\n        /* \"Contracts/FundMe.sol\":1335:1341  funder */\n      dup4\n        /* \"Contracts/FundMe.sol\":1313:1342  addressToAmountFunded[funder] */\n      0xffffffffffffffffffffffffffffffffffffffff\n      and\n      0xffffffffffffffffffffffffffffffffffffffff\n      and\n      dup2\n      mstore\n      0x20\n      add\n      swap1\n      dup2\n      mstore\n      0x20\n      add\n      0x00\n      keccak256\n        /* \"Contracts/FundMe.sol\":1313:1346  addressToAmountFunded[funder] = 0 */\n      dup2\n      swap1\n      sstore\n      pop\n        /* \"Contracts/FundMe.sol\":1258:1357  {... */\n      pop\n        /* \"Contracts/FundMe.sol\":1253:1256  i++ */\n      dup1\n      dup1\n      tag_38\n      swap1\n      tag_39\n      jump\t// in\n    tag_38:\n      swap2\n      pop\n      pop\n        /* \"Contracts/FundMe.sol\":1214:1357  for(uint256 i = 0; i < funders.length; i++) {... */\n      jump(tag_31)\n    tag_32:\n      pop\n        /* \"Contracts/FundMe.sol\":1426:1427  0 */\n      0x00\n        /* \"Contracts/FundMe.sol\":1412:1428  new address[](0) */\n      0xffffffffffffffff\n      dup2\n      gt\n      iszero\n      tag_40\n      jumpi\n      tag_41\n      tag_42\n      jump\t// in\n    tag_41:\n    tag_40:\n      mload(0x40)\n      swap1\n      dup1\n      dup3\n      mstore\n      dup1\n      0x20\n      mul\n      0x20\n      add\n      dup3\n      add\n      0x40\n      mstore\n      dup1\n      iszero\n      tag_43\n      jumpi\n      dup2\n      0x20\n      add\n      0x20\n      dup3\n      mul\n      dup1\n      calldatasize\n      dup4\n      calldatacopy\n      dup1\n      dup3\n      add\n      swap2\n      pop\n      pop\n      swap1\n      pop\n    tag_43:\n      pop\n        /* \"Contracts/FundMe.sol\":1402:1409  funders */\n      0x01\n        /* \"Contracts/FundMe.sol\":1402:1428  funders = new address[](0) */\n      swap1\n      dup1\n      mload\n      swap1\n      0x20\n      add\n      swap1\n      tag_44\n      swap3\n      swap2\n      swap1\n      tag_45\n      jump\t// in\n    tag_44:\n      pop\n        /* \"Contracts/FundMe.sol\":2574:2590  bool callSuccess */\n      0x00\n        /* \"Contracts/FundMe.sol\":2604:2614  msg.sender */\n      caller\n        /* \"Contracts/FundMe.sol\":2596:2620  payable(msg.sender).call */\n      0xffffffffffffffffffffffffffffffffffffffff\n      and\n        /* \"Contracts/FundMe.sol\":2628:2649  address(this).balance */\n      selfbalance\n        /* \"Contracts/FundMe.sol\":2596:2654  payable(msg.sender).call{value: address(this).balance}(\"\") */\n      mload(0x40)\n      tag_46\n      swap1\n      tag_47\n      jump\t// in\n    tag_46:\n      0x00\n      mload(0x40)\n      dup1\n      dup4\n      sub\n      dup2\n      dup6\n      dup8\n      gas\n      call\n      swap3\n      pop\n      pop\n      pop\n      returndatasize\n      dup1\n      0x00\n      dup2\n      eq\n      tag_50\n      jumpi\n      mload(0x40)\n      swap2\n      pop\n      and(add(returndatasize, 0x3f), not(0x1f))\n      dup3\n      add\n      0x40\n      mstore\n      returndatasize\n      dup3\n      mstore\n      returndatasize\n      0x00\n      0x20\n      dup5\n      add\n      returndatacopy\n      jump(tag_49)\n    tag_50:\n      0x60\n      swap2\n      pop\n    tag_49:\n      pop\n        /* \"Contracts/FundMe.sol\":2573:2654  (bool callSuccess, ) = payable(msg.sender).call{value: address(this).balance}(\"\") */\n      pop\n      swap1\n      pop\n        /* \"Contracts/FundMe.sol\":2760:2771  callSuccess */\n      dup1\n        /* \"Contracts/FundMe.sol\":2752:2787  require(callSuccess, \"Call failed\") */\n      tag_51\n      jumpi\n      mload(0x40)\n      0x08c379a000000000000000000000000000000000000000000000000000000000\n      dup2\n      mstore\n      0x04\n      add\n      tag_52\n      swap1\n      tag_53\n      jump\t// in\n    tag_52:\n      mload(0x40)\n      dup1\n      swap2\n      sub\n      swap1\n      revert\n    tag_51:\n        /* \"Contracts/FundMe.sol\":1091:2794  {... */\n      pop\n        /* \"Contracts/FundMe.sol\":1064:2794  function withdraw() public {... */\n      jump\t// out\n        /* \"Contracts/FundMe.sol\":455:511  mapping(address => uint256) public addressToAmountFunded */\n    tag_14:\n      mstore(0x20, 0x02)\n      dup1\n      0x00\n      mstore\n      keccak256(0x00, 0x40)\n      0x00\n      swap2\n      pop\n      swap1\n      pop\n      sload\n      dup2\n      jump\t// out\n        /* \"Contracts/FundMe.sol\":385:418  uint256 public minUsd = 50 * 1e18 */\n    tag_19:\n      sload(0x00)\n      dup2\n      jump\t// out\n        /* \"Contracts/FundMe.sol\":623:1058  function fund() public payable {... */\n    tag_22:\n        /* \"Contracts/FundMe.sol\":856:862  minUsd */\n      sload(0x00)\n        /* \"Contracts/FundMe.sol\":823:852  msg.value.getConversionRate() */\n      tag_55\n        /* \"Contracts/FundMe.sol\":823:832  msg.value */\n      callvalue\n        /* \"Contracts/FundMe.sol\":823:850  msg.value.getConversionRate */\n      tag_56\n        /* \"Contracts/FundMe.sol\":823:852  msg.value.getConversionRate() */\n      jump\t// in\n    tag_55:\n        /* \"Contracts/FundMe.sol\":823:862  msg.value.getConversionRate() >= minUsd */\n      lt\n      iszero\n        /* \"Contracts/FundMe.sol\":815:885  require(msg.value.getConversionRate() >= minUsd, \"Didn't send enough\") */\n      tag_57\n      jumpi\n      mload(0x40)\n      0x08c379a000000000000000000000000000000000000000000000000000000000\n      dup2\n      mstore\n      0x04\n      add\n      tag_58\n      swap1\n      tag_59\n      jump\t// in\n    tag_58:\n      mload(0x40)\n      dup1\n      swap2\n      sub\n      swap1\n      revert\n    tag_57:\n        /* \"Contracts/FundMe.sol\":896:903  funders */\n      0x01\n        /* \"Contracts/FundMe.sol\":909:919  msg.sender */\n      caller\n        /* \"Contracts/FundMe.sol\":896:920  funders.push(msg.sender) */\n      swap1\n      dup1\n      0x01\n      dup2\n      sload\n      add\n      dup1\n      dup3\n      sstore\n      dup1\n      swap2\n      pop\n      pop\n      0x01\n      swap1\n      sub\n      swap1\n      0x00\n      mstore\n      keccak256(0x00, 0x20)\n      add\n      0x00\n      swap1\n      swap2\n      swap1\n      swap2\n      swap1\n      swap2\n      0x0100\n      exp\n      dup2\n      sload\n      dup2\n      0xffffffffffffffffffffffffffffffffffffffff\n      mul\n      not\n      and\n      swap1\n      dup4\n      0xffffffffffffffffffffffffffffffffffffffff\n      and\n      mul\n      or\n      swap1\n      sstore\n      pop\n        /* \"Contracts/FundMe.sol\":1042:1051  msg.value */\n      callvalue\n        /* \"Contracts/FundMe.sol\":1006:1027  addressToAmountFunded */\n      0x02\n        /* \"Contracts/FundMe.sol\":1006:1039  addressToAmountFunded[msg.sender] */\n      0x00\n        /* \"Contracts/FundMe.sol\":1028:1038  msg.sender */\n      caller\n        /* \"Contracts/FundMe.sol\":1006:1039  addressToAmountFunded[msg.sender] */\n      0xffffffffffffffffffffffffffffffffffffffff\n      and\n      0xffffffffffffffffffffffffffffffffffffffff\n      and\n      dup2\n      mstore\n      0x20\n      add\n      swap1\n      dup2\n      mstore\n      0x20\n      add\n      0x00\n      keccak256\n        /* \"Contracts/FundMe.sol\":1006:1051  addressToAmountFunded[msg.sender] = msg.value */\n      dup2\n      swap1\n      sstore\n      pop\n        /* \"Contracts/FundMe.sol\":623:1058  function fund() public payable {... */\n      jump\t// out\n        /* \"Contracts/FundMe.sol\":425:449  address[] public funders */\n    tag_27:\n      0x01\n      dup2\n      dup2\n      sload\n      dup2\n      lt\n      tag_61\n      jumpi\n      0x00\n      dup1\n      revert\n    tag_61:\n      swap1\n      0x00\n      mstore\n      keccak256(0x00, 0x20)\n      add\n      0x00\n      swap2\n      pop\n      sload\n      swap1\n      0x0100\n      exp\n      swap1\n      div\n      0xffffffffffffffffffffffffffffffffffffffff\n      and\n      dup2\n      jump\t// out\n        /* \"Contracts/PriceConverter.sol\":845:1230  function getConversionRate(uint256 ethAmount) internal view returns (uint256) {... */\n    tag_56:\n        /* \"Contracts/PriceConverter.sol\":914:921  uint256 */\n      0x00\n        /* \"Contracts/PriceConverter.sol\":992:1008  uint256 ethPrice */\n      dup1\n        /* \"Contracts/PriceConverter.sol\":1011:1021  getPrice() */\n      tag_64\n        /* \"Contracts/PriceConverter.sol\":1011:1019  getPrice */\n      tag_65\n        /* \"Contracts/PriceConverter.sol\":1011:1021  getPrice() */\n      jump\t// in\n    tag_64:\n        /* \"Contracts/PriceConverter.sol\":992:1021  uint256 ethPrice = getPrice() */\n      swap1\n      pop\n        /* \"Contracts/PriceConverter.sol\":1086:1108  uint256 ethAmountInUsd */\n      0x00\n        /* \"Contracts/PriceConverter.sol\":1136:1140  1e18 */\n      0x0de0b6b3a7640000\n        /* \"Contracts/PriceConverter.sol\":1123:1132  ethAmount */\n      dup5\n        /* \"Contracts/PriceConverter.sol\":1112:1120  ethPrice */\n      dup4\n        /* \"Contracts/PriceConverter.sol\":1112:1132  ethPrice * ethAmount */\n      tag_66\n      swap2\n      swap1\n      tag_67\n      jump\t// in\n    tag_66:\n        /* \"Contracts/PriceConverter.sol\":1111:1140  (ethPrice * ethAmount) / 1e18 */\n      tag_68\n      swap2\n      swap1\n      tag_69\n      jump\t// in\n    tag_68:\n        /* \"Contracts/PriceConverter.sol\":1086:1140  uint256 ethAmountInUsd = (ethPrice * ethAmount) / 1e18 */\n      swap1\n      pop\n        /* \"Contracts/PriceConverter.sol\":1207:1221  ethAmountInUsd */\n      dup1\n        /* \"Contracts/PriceConverter.sol\":1200:1221  return ethAmountInUsd */\n      swap3\n      pop\n      pop\n      pop\n        /* \"Contracts/PriceConverter.sol\":845:1230  function getConversionRate(uint256 ethAmount) internal view returns (uint256) {... */\n      swap2\n      swap1\n      pop\n      jump\t// out\n        /* \"Contracts/PriceConverter.sol\":180:627  function getPrice() internal view returns (uint256) {... */\n    tag_65:\n        /* \"Contracts/PriceConverter.sol\":223:230  uint256 */\n      0x00\n        /* \"Contracts/PriceConverter.sol\":242:273  AggregatorV3Interface priceFeed */\n      dup1\n        /* \"Contracts/PriceConverter.sol\":298:340  0x8A753747A1Fa494EC906cE90E9f37563A8AF630e */\n      0x8a753747a1fa494ec906ce90e9f37563a8af630e\n        /* \"Contracts/PriceConverter.sol\":242:341  AggregatorV3Interface priceFeed = AggregatorV3Interface(0x8A753747A1Fa494EC906cE90E9f37563A8AF630e) */\n      swap1\n      pop\n        /* \"Contracts/PriceConverter.sol\":393:405  int256 price */\n      0x00\n        /* \"Contracts/PriceConverter.sol\":412:421  priceFeed */\n      dup2\n        /* \"Contracts/PriceConverter.sol\":412:437  priceFeed.latestRoundData */\n      0xffffffffffffffffffffffffffffffffffffffff\n      and\n      0xfeaf968c\n        /* \"Contracts/PriceConverter.sol\":412:439  priceFeed.latestRoundData() */\n      mload(0x40)\n      dup2\n      0xffffffff\n      and\n      0xe0\n      shl\n      dup2\n      mstore\n      0x04\n      add\n      0xa0\n      mload(0x40)\n      dup1\n      dup4\n      sub\n      dup2\n      dup7\n      dup1\n      extcodesize\n      iszero\n      dup1\n      iszero\n      tag_71\n      jumpi\n      0x00\n      dup1\n      revert\n    tag_71:\n      pop\n      gas\n      staticcall\n      iszero\n      dup1\n      iszero\n      tag_73\n      jumpi\n      returndatasize\n      0x00\n      dup1\n      returndatacopy\n      revert(0x00, returndatasize)\n    tag_73:\n      pop\n      pop\n      pop\n      pop\n      mload(0x40)\n      returndatasize\n      not(0x1f)\n      0x1f\n      dup3\n      add\n      and\n      dup3\n      add\n      dup1\n      0x40\n      mstore\n      pop\n      dup2\n      add\n      swap1\n      tag_74\n      swap2\n      swap1\n      tag_75\n      jump\t// in\n    tag_74:\n        /* \"Contracts/PriceConverter.sol\":391:439  (,int256 price,,,) = priceFeed.latestRoundData() */\n      pop\n      pop\n      pop\n      swap2\n      pop\n      pop\n        /* \"Contracts/PriceConverter.sol\":615:619  1e10 */\n      0x02540be400\n        /* \"Contracts/PriceConverter.sol\":607:612  price */\n      dup2\n        /* \"Contracts/PriceConverter.sol\":607:619  price * 1e10 */\n      tag_76\n      swap2\n      swap1\n      tag_77\n      jump\t// in\n    tag_76:\n        /* \"Contracts/PriceConverter.sol\":592:620  return uint256(price * 1e10) */\n      swap3\n      pop\n      pop\n      pop\n        /* \"Contracts/PriceConverter.sol\":180:627  function getPrice() internal view returns (uint256) {... */\n      swap1\n      jump\t// out\n    tag_45:\n      dup3\n      dup1\n      sload\n      dup3\n      dup3\n      sstore\n      swap1\n      0x00\n      mstore\n      keccak256(0x00, 0x20)\n      swap1\n      dup2\n      add\n      swap3\n      dup3\n      iszero\n      tag_78\n      jumpi\n      swap2\n      0x20\n      mul\n      dup3\n      add\n    tag_79:\n      dup3\n      dup2\n      gt\n      iszero\n      tag_80\n      jumpi\n      dup3\n      mload\n      dup3\n      exp(0x0100, 0x00)\n      dup2\n      sload\n      dup2\n      0xffffffffffffffffffffffffffffffffffffffff\n      mul\n      not\n      and\n      swap1\n      dup4\n      0xffffffffffffffffffffffffffffffffffffffff\n      and\n      mul\n      or\n      swap1\n      sstore\n      pop\n      swap2\n      0x20\n      add\n      swap2\n      swap1\n      0x01\n      add\n      swap1\n      jump(tag_79)\n    tag_80:\n    tag_78:\n      pop\n      swap1\n      pop\n      tag_81\n      swap2\n      swap1\n      tag_82\n      jump\t// in\n    tag_81:\n      pop\n      swap1\n      jump\t// out\n    tag_82:\n    tag_83:\n      dup1\n      dup3\n      gt\n      iszero\n      tag_84\n      jumpi\n      0x00\n      dup2\n      0x00\n      swap1\n      sstore\n      pop\n      0x01\n      add\n      jump(tag_83)\n    tag_84:\n      pop\n      swap1\n      jump\t// out\n        /* \"#utility.yul\":88:205   */\n    tag_86:\n        /* \"#utility.yul\":197:198   */\n      0x00\n        /* \"#utility.yul\":194:195   */\n      dup1\n        /* \"#utility.yul\":187:199   */\n      revert\n        /* \"#utility.yul\":334:460   */\n    tag_88:\n        /* \"#utility.yul\":371:378   */\n      0x00\n        /* \"#utility.yul\":411:453   */\n      0xffffffffffffffffffffffffffffffffffffffff\n        /* \"#utility.yul\":404:409   */\n      dup3\n        /* \"#utility.yul\":400:454   */\n      and\n        /* \"#utility.yul\":389:454   */\n      swap1\n      pop\n        /* \"#utility.yul\":334:460   */\n      swap2\n      swap1\n      pop\n      jump\t// out\n        /* \"#utility.yul\":466:562   */\n    tag_89:\n        /* \"#utility.yul\":503:510   */\n      0x00\n        /* \"#utility.yul\":532:556   */\n      tag_120\n        /* \"#utility.yul\":550:555   */\n      dup3\n        /* \"#utility.yul\":532:556   */\n      tag_88\n      jump\t// in\n    tag_120:\n        /* \"#utility.yul\":521:556   */\n      swap1\n      pop\n        /* \"#utility.yul\":466:562   */\n      swap2\n      swap1\n      pop\n      jump\t// out\n        /* \"#utility.yul\":568:690   */\n    tag_90:\n        /* \"#utility.yul\":641:665   */\n      tag_122\n        /* \"#utility.yul\":659:664   */\n      dup2\n        /* \"#utility.yul\":641:665   */\n      tag_89\n      jump\t// in\n    tag_122:\n        /* \"#utility.yul\":634:639   */\n      dup2\n        /* \"#utility.yul\":631:666   */\n      eq\n        /* \"#utility.yul\":621:684   */\n      tag_123\n      jumpi\n        /* \"#utility.yul\":680:681   */\n      0x00\n        /* \"#utility.yul\":677:678   */\n      dup1\n        /* \"#utility.yul\":670:682   */\n      revert\n        /* \"#utility.yul\":621:684   */\n    tag_123:\n        /* \"#utility.yul\":568:690   */\n      pop\n      jump\t// out\n        /* \"#utility.yul\":696:835   */\n    tag_91:\n        /* \"#utility.yul\":742:747   */\n      0x00\n        /* \"#utility.yul\":780:786   */\n      dup2\n        /* \"#utility.yul\":767:787   */\n      calldataload\n        /* \"#utility.yul\":758:787   */\n      swap1\n      pop\n        /* \"#utility.yul\":796:829   */\n      tag_125\n        /* \"#utility.yul\":823:828   */\n      dup2\n        /* \"#utility.yul\":796:829   */\n      tag_90\n      jump\t// in\n    tag_125:\n        /* \"#utility.yul\":696:835   */\n      swap3\n      swap2\n      pop\n      pop\n      jump\t// out\n        /* \"#utility.yul\":841:1170   */\n    tag_13:\n        /* \"#utility.yul\":900:906   */\n      0x00\n        /* \"#utility.yul\":949:951   */\n      0x20\n        /* \"#utility.yul\":937:946   */\n      dup3\n        /* \"#utility.yul\":928:935   */\n      dup5\n        /* \"#utility.yul\":924:947   */\n      sub\n        /* \"#utility.yul\":920:952   */\n      slt\n        /* \"#utility.yul\":917:1036   */\n      iszero\n      tag_127\n      jumpi\n        /* \"#utility.yul\":955:1034   */\n      tag_128\n      tag_86\n      jump\t// in\n    tag_128:\n        /* \"#utility.yul\":917:1036   */\n    tag_127:\n        /* \"#utility.yul\":1075:1076   */\n      0x00\n        /* \"#utility.yul\":1100:1153   */\n      tag_129\n        /* \"#utility.yul\":1145:1152   */\n      dup5\n        /* \"#utility.yul\":1136:1142   */\n      dup3\n        /* \"#utility.yul\":1125:1134   */\n      dup6\n        /* \"#utility.yul\":1121:1143   */\n      add\n        /* \"#utility.yul\":1100:1153   */\n      tag_91\n      jump\t// in\n    tag_129:\n        /* \"#utility.yul\":1090:1153   */\n      swap2\n      pop\n        /* \"#utility.yul\":1046:1163   */\n      pop\n        /* \"#utility.yul\":841:1170   */\n      swap3\n      swap2\n      pop\n      pop\n      jump\t// out\n        /* \"#utility.yul\":1176:1253   */\n    tag_92:\n        /* \"#utility.yul\":1213:1220   */\n      0x00\n        /* \"#utility.yul\":1242:1247   */\n      dup2\n        /* \"#utility.yul\":1231:1247   */\n      swap1\n      pop\n        /* \"#utility.yul\":1176:1253   */\n      swap2\n      swap1\n      pop\n      jump\t// out\n        /* \"#utility.yul\":1259:1377   */\n    tag_93:\n        /* \"#utility.yul\":1346:1370   */\n      tag_132\n        /* \"#utility.yul\":1364:1369   */\n      dup2\n        /* \"#utility.yul\":1346:1370   */\n      tag_92\n      jump\t// in\n    tag_132:\n        /* \"#utility.yul\":1341:1344   */\n      dup3\n        /* \"#utility.yul\":1334:1371   */\n      mstore\n        /* \"#utility.yul\":1259:1377   */\n      pop\n      pop\n      jump\t// out\n        /* \"#utility.yul\":1383:1605   */\n    tag_16:\n        /* \"#utility.yul\":1476:1480   */\n      0x00\n        /* \"#utility.yul\":1514:1516   */\n      0x20\n        /* \"#utility.yul\":1503:1512   */\n      dup3\n        /* \"#utility.yul\":1499:1517   */\n      add\n        /* \"#utility.yul\":1491:1517   */\n      swap1\n      pop\n        /* \"#utility.yul\":1527:1598   */\n      tag_134\n        /* \"#utility.yul\":1595:1596   */\n      0x00\n        /* \"#utility.yul\":1584:1593   */\n      dup4\n        /* \"#utility.yul\":1580:1597   */\n      add\n        /* \"#utility.yul\":1571:1577   */\n      dup5\n        /* \"#utility.yul\":1527:1598   */\n      tag_93\n      jump\t// in\n    tag_134:\n        /* \"#utility.yul\":1383:1605   */\n      swap3\n      swap2\n      pop\n      pop\n      jump\t// out\n        /* \"#utility.yul\":1611:1733   */\n    tag_94:\n        /* \"#utility.yul\":1684:1708   */\n      tag_136\n        /* \"#utility.yul\":1702:1707   */\n      dup2\n        /* \"#utility.yul\":1684:1708   */\n      tag_92\n      jump\t// in\n    tag_136:\n        /* \"#utility.yul\":1677:1682   */\n      dup2\n        /* \"#utility.yul\":1674:1709   */\n      eq\n        /* \"#utility.yul\":1664:1727   */\n      tag_137\n      jumpi\n        /* \"#utility.yul\":1723:1724   */\n      0x00\n        /* \"#utility.yul\":1720:1721   */\n      dup1\n        /* \"#utility.yul\":1713:1725   */\n      revert\n        /* \"#utility.yul\":1664:1727   */\n    tag_137:\n        /* \"#utility.yul\":1611:1733   */\n      pop\n      jump\t// out\n        /* \"#utility.yul\":1739:1878   */\n    tag_95:\n        /* \"#utility.yul\":1785:1790   */\n      0x00\n        /* \"#utility.yul\":1823:1829   */\n      dup2\n        /* \"#utility.yul\":1810:1830   */\n      calldataload\n        /* \"#utility.yul\":1801:1830   */\n      swap1\n      pop\n        /* \"#utility.yul\":1839:1872   */\n      tag_139\n        /* \"#utility.yul\":1866:1871   */\n      dup2\n        /* \"#utility.yul\":1839:1872   */\n      tag_94\n      jump\t// in\n    tag_139:\n        /* \"#utility.yul\":1739:1878   */\n      swap3\n      swap2\n      pop\n      pop\n      jump\t// out\n        /* \"#utility.yul\":1884:2213   */\n    tag_26:\n        /* \"#utility.yul\":1943:1949   */\n      0x00\n        /* \"#utility.yul\":1992:1994   */\n      0x20\n        /* \"#utility.yul\":1980:1989   */\n      dup3\n        /* \"#utility.yul\":1971:1978   */\n      dup5\n        /* \"#utility.yul\":1967:1990   */\n      sub\n        /* \"#utility.yul\":1963:1995   */\n      slt\n        /* \"#utility.yul\":1960:2079   */\n      iszero\n      tag_141\n      jumpi\n        /* \"#utility.yul\":1998:2077   */\n      tag_142\n      tag_86\n      jump\t// in\n    tag_142:\n        /* \"#utility.yul\":1960:2079   */\n    tag_141:\n        /* \"#utility.yul\":2118:2119   */\n      0x00\n        /* \"#utility.yul\":2143:2196   */\n      tag_143\n        /* \"#utility.yul\":2188:2195   */\n      dup5\n        /* \"#utility.yul\":2179:2185   */\n      dup3\n        /* \"#utility.yul\":2168:2177   */\n      dup6\n        /* \"#utility.yul\":2164:2186   */\n      add\n        /* \"#utility.yul\":2143:2196   */\n      tag_95\n      jump\t// in\n    tag_143:\n        /* \"#utility.yul\":2133:2196   */\n      swap2\n      pop\n        /* \"#utility.yul\":2089:2206   */\n      pop\n        /* \"#utility.yul\":1884:2213   */\n      swap3\n      swap2\n      pop\n      pop\n      jump\t// out\n        /* \"#utility.yul\":2219:2337   */\n    tag_96:\n        /* \"#utility.yul\":2306:2330   */\n      tag_145\n        /* \"#utility.yul\":2324:2329   */\n      dup2\n        /* \"#utility.yul\":2306:2330   */\n      tag_89\n      jump\t// in\n    tag_145:\n        /* \"#utility.yul\":2301:2304   */\n      dup3\n        /* \"#utility.yul\":2294:2331   */\n      mstore\n        /* \"#utility.yul\":2219:2337   */\n      pop\n      pop\n      jump\t// out\n        /* \"#utility.yul\":2343:2565   */\n    tag_29:\n        /* \"#utility.yul\":2436:2440   */\n      0x00\n        /* \"#utility.yul\":2474:2476   */\n      0x20\n        /* \"#utility.yul\":2463:2472   */\n      dup3\n        /* \"#utility.yul\":2459:2477   */\n      add\n        /* \"#utility.yul\":2451:2477   */\n      swap1\n      pop\n        /* \"#utility.yul\":2487:2558   */\n      tag_147\n        /* \"#utility.yul\":2555:2556   */\n      0x00\n        /* \"#utility.yul\":2544:2553   */\n      dup4\n        /* \"#utility.yul\":2540:2557   */\n      add\n        /* \"#utility.yul\":2531:2537   */\n      dup5\n        /* \"#utility.yul\":2487:2558   */\n      tag_96\n      jump\t// in\n    tag_147:\n        /* \"#utility.yul\":2343:2565   */\n      swap3\n      swap2\n      pop\n      pop\n      jump\t// out\n        /* \"#utility.yul\":2571:2751   */\n    tag_36:\n        /* \"#utility.yul\":2619:2696   */\n      0x4e487b7100000000000000000000000000000000000000000000000000000000\n        /* \"#utility.yul\":2616:2617   */\n      0x00\n        /* \"#utility.yul\":2609:2697   */\n      mstore\n        /* \"#utility.yul\":2716:2720   */\n      0x32\n        /* \"#utility.yul\":2713:2714   */\n      0x04\n        /* \"#utility.yul\":2706:2721   */\n      mstore\n        /* \"#utility.yul\":2740:2744   */\n      0x24\n        /* \"#utility.yul\":2737:2738   */\n      0x00\n        /* \"#utility.yul\":2730:2745   */\n      revert\n        /* \"#utility.yul\":2757:2937   */\n    tag_97:\n        /* \"#utility.yul\":2805:2882   */\n      0x4e487b7100000000000000000000000000000000000000000000000000000000\n        /* \"#utility.yul\":2802:2803   */\n      0x00\n        /* \"#utility.yul\":2795:2883   */\n      mstore\n        /* \"#utility.yul\":2902:2906   */\n      0x11\n        /* \"#utility.yul\":2899:2900   */\n      0x04\n        /* \"#utility.yul\":2892:2907   */\n      mstore\n        /* \"#utility.yul\":2926:2930   */\n      0x24\n        /* \"#utility.yul\":2923:2924   */\n      0x00\n        /* \"#utility.yul\":2916:2931   */\n      revert\n        /* \"#utility.yul\":2943:3176   */\n    tag_39:\n        /* \"#utility.yul\":2982:2985   */\n      0x00\n        /* \"#utility.yul\":3005:3029   */\n      tag_151\n        /* \"#utility.yul\":3023:3028   */\n      dup3\n        /* \"#utility.yul\":3005:3029   */\n      tag_92\n      jump\t// in\n    tag_151:\n        /* \"#utility.yul\":2996:3029   */\n      swap2\n      pop\n        /* \"#utility.yul\":3051:3117   */\n      0xffffffffffffffffffffffffffffffffffffffffffffffffffffffffffffffff\n        /* \"#utility.yul\":3044:3049   */\n      dup3\n        /* \"#utility.yul\":3041:3118   */\n      eq\n        /* \"#utility.yul\":3038:3141   */\n      iszero\n      tag_152\n      jumpi\n        /* \"#utility.yul\":3121:3139   */\n      tag_153\n      tag_97\n      jump\t// in\n    tag_153:\n        /* \"#utility.yul\":3038:3141   */\n    tag_152:\n        /* \"#utility.yul\":3168:3169   */\n      0x01\n        /* \"#utility.yul\":3161:3166   */\n      dup3\n        /* \"#utility.yul\":3157:3170   */\n      add\n        /* \"#utility.yul\":3150:3170   */\n      swap1\n      pop\n        /* \"#utility.yul\":2943:3176   */\n      swap2\n      swap1\n      pop\n      jump\t// out\n        /* \"#utility.yul\":3182:3362   */\n    tag_42:\n        /* \"#utility.yul\":3230:3307   */\n      0x4e487b7100000000000000000000000000000000000000000000000000000000\n        /* \"#utility.yul\":3227:3228   */\n      0x00\n        /* \"#utility.yul\":3220:3308   */\n      mstore\n        /* \"#utility.yul\":3327:3331   */\n      0x41\n        /* \"#utility.yul\":3324:3325   */\n      0x04\n        /* \"#utility.yul\":3317:3332   */\n      mstore\n        /* \"#utility.yul\":3351:3355   */\n      0x24\n        /* \"#utility.yul\":3348:3349   */\n      0x00\n        /* \"#utility.yul\":3341:3356   */\n      revert\n        /* \"#utility.yul\":3368:3515   */\n    tag_98:\n        /* \"#utility.yul\":3469:3480   */\n      0x00\n        /* \"#utility.yul\":3506:3509   */\n      dup2\n        /* \"#utility.yul\":3491:3509   */\n      swap1\n      pop\n        /* \"#utility.yul\":3368:3515   */\n      swap3\n      swap2\n      pop\n      pop\n      jump\t// out\n        /* \"#utility.yul\":3521:3635   */\n    tag_99:\n      pop\n      jump\t// out\n        /* \"#utility.yul\":3641:4039   */\n    tag_100:\n        /* \"#utility.yul\":3800:3803   */\n      0x00\n        /* \"#utility.yul\":3821:3904   */\n      tag_158\n        /* \"#utility.yul\":3902:3903   */\n      0x00\n        /* \"#utility.yul\":3897:3900   */\n      dup4\n        /* \"#utility.yul\":3821:3904   */\n      tag_98\n      jump\t// in\n    tag_158:\n        /* \"#utility.yul\":3814:3904   */\n      swap2\n      pop\n        /* \"#utility.yul\":3913:4006   */\n      tag_159\n        /* \"#utility.yul\":4002:4005   */\n      dup3\n        /* \"#utility.yul\":3913:4006   */\n      tag_99\n      jump\t// in\n    tag_159:\n        /* \"#utility.yul\":4031:4032   */\n      0x00\n        /* \"#utility.yul\":4026:4029   */\n      dup3\n        /* \"#utility.yul\":4022:4033   */\n      add\n        /* \"#utility.yul\":4015:4033   */\n      swap1\n      pop\n        /* \"#utility.yul\":3641:4039   */\n      swap2\n      swap1\n      pop\n      jump\t// out\n        /* \"#utility.yul\":4045:4424   */\n    tag_47:\n        /* \"#utility.yul\":4229:4232   */\n      0x00\n        /* \"#utility.yul\":4251:4398   */\n      tag_161\n        /* \"#utility.yul\":4394:4397   */\n      dup3\n        /* \"#utility.yul\":4251:4398   */\n      tag_100\n      jump\t// in\n    tag_161:\n        /* \"#utility.yul\":4244:4398   */\n      swap2\n      pop\n        /* \"#utility.yul\":4415:4418   */\n      dup2\n        /* \"#utility.yul\":4408:4418   */\n      swap1\n      pop\n        /* \"#utility.yul\":4045:4424   */\n      swap2\n      swap1\n      pop\n      jump\t// out\n        /* \"#utility.yul\":4430:4599   */\n    tag_101:\n        /* \"#utility.yul\":4514:4525   */\n      0x00\n        /* \"#utility.yul\":4548:4554   */\n      dup3\n        /* \"#utility.yul\":4543:4546   */\n      dup3\n        /* \"#utility.yul\":4536:4555   */\n      mstore\n        /* \"#utility.yul\":4588:4592   */\n      0x20\n        /* \"#utility.yul\":4583:4586   */\n      dup3\n        /* \"#utility.yul\":4579:4593   */\n      add\n        /* \"#utility.yul\":4564:4593   */\n      swap1\n      pop\n        /* \"#utility.yul\":4430:4599   */\n      swap3\n      swap2\n      pop\n      pop\n      jump\t// out\n        /* \"#utility.yul\":4605:4766   */\n    tag_102:\n        /* \"#utility.yul\":4745:4758   */\n      0x43616c6c206661696c6564000000000000000000000000000000000000000000\n        /* \"#utility.yul\":4741:4742   */\n      0x00\n        /* \"#utility.yul\":4733:4739   */\n      dup3\n        /* \"#utility.yul\":4729:4743   */\n      add\n        /* \"#utility.yul\":4722:4759   */\n      mstore\n        /* \"#utility.yul\":4605:4766   */\n      pop\n      jump\t// out\n        /* \"#utility.yul\":4772:5138   */\n    tag_103:\n        /* \"#utility.yul\":4914:4917   */\n      0x00\n        /* \"#utility.yul\":4935:5002   */\n      tag_165\n        /* \"#utility.yul\":4999:5001   */\n      0x0b\n        /* \"#utility.yul\":4994:4997   */\n      dup4\n        /* \"#utility.yul\":4935:5002   */\n      tag_101\n      jump\t// in\n    tag_165:\n        /* \"#utility.yul\":4928:5002   */\n      swap2\n      pop\n        /* \"#utility.yul\":5011:5104   */\n      tag_166\n        /* \"#utility.yul\":5100:5103   */\n      dup3\n        /* \"#utility.yul\":5011:5104   */\n      tag_102\n      jump\t// in\n    tag_166:\n        /* \"#utility.yul\":5129:5131   */\n      0x20\n        /* \"#utility.yul\":5124:5127   */\n      dup3\n        /* \"#utility.yul\":5120:5132   */\n      add\n        /* \"#utility.yul\":5113:5132   */\n      swap1\n      pop\n        /* \"#utility.yul\":4772:5138   */\n      swap2\n      swap1\n      pop\n      jump\t// out\n        /* \"#utility.yul\":5144:5563   */\n    tag_53:\n        /* \"#utility.yul\":5310:5314   */\n      0x00\n        /* \"#utility.yul\":5348:5350   */\n      0x20\n        /* \"#utility.yul\":5337:5346   */\n      dup3\n        /* \"#utility.yul\":5333:5351   */\n      add\n        /* \"#utility.yul\":5325:5351   */\n      swap1\n      pop\n        /* \"#utility.yul\":5397:5406   */\n      dup2\n        /* \"#utility.yul\":5391:5395   */\n      dup2\n        /* \"#utility.yul\":5387:5407   */\n      sub\n        /* \"#utility.yul\":5383:5384   */\n      0x00\n        /* \"#utility.yul\":5372:5381   */\n      dup4\n        /* \"#utility.yul\":5368:5385   */\n      add\n        /* \"#utility.yul\":5361:5408   */\n      mstore\n        /* \"#utility.yul\":5425:5556   */\n      tag_168\n        /* \"#utility.yul\":5551:5555   */\n      dup2\n        /* \"#utility.yul\":5425:5556   */\n      tag_103\n      jump\t// in\n    tag_168:\n        /* \"#utility.yul\":5417:5556   */\n      swap1\n      pop\n        /* \"#utility.yul\":5144:5563   */\n      swap2\n      swap1\n      pop\n      jump\t// out\n        /* \"#utility.yul\":5569:5737   */\n    tag_104:\n        /* \"#utility.yul\":5709:5729   */\n      0x4469646e27742073656e6420656e6f7567680000000000000000000000000000\n        /* \"#utility.yul\":5705:5706   */\n      0x00\n        /* \"#utility.yul\":5697:5703   */\n      dup3\n        /* \"#utility.yul\":5693:5707   */\n      add\n        /* \"#utility.yul\":5686:5730   */\n      mstore\n        /* \"#utility.yul\":5569:5737   */\n      pop\n      jump\t// out\n        /* \"#utility.yul\":5743:6109   */\n    tag_105:\n        /* \"#utility.yul\":5885:5888   */\n      0x00\n        /* \"#utility.yul\":5906:5973   */\n      tag_171\n        /* \"#utility.yul\":5970:5972   */\n      0x12\n        /* \"#utility.yul\":5965:5968   */\n      dup4\n        /* \"#utility.yul\":5906:5973   */\n      tag_101\n      jump\t// in\n    tag_171:\n        /* \"#utility.yul\":5899:5973   */\n      swap2\n      pop\n        /* \"#utility.yul\":5982:6075   */\n      tag_172\n        /* \"#utility.yul\":6071:6074   */\n      dup3\n        /* \"#utility.yul\":5982:6075   */\n      tag_104\n      jump\t// in\n    tag_172:\n        /* \"#utility.yul\":6100:6102   */\n      0x20\n        /* \"#utility.yul\":6095:6098   */\n      dup3\n        /* \"#utility.yul\":6091:6103   */\n      add\n        /* \"#utility.yul\":6084:6103   */\n      swap1\n      pop\n        /* \"#utility.yul\":5743:6109   */\n      swap2\n      swap1\n      pop\n      jump\t// out\n        /* \"#utility.yul\":6115:6534   */\n    tag_59:\n        /* \"#utility.yul\":6281:6285   */\n      0x00\n        /* \"#utility.yul\":6319:6321   */\n      0x20\n        /* \"#utility.yul\":6308:6317   */\n      dup3\n        /* \"#utility.yul\":6304:6322   */\n      add\n        /* \"#utility.yul\":6296:6322   */\n      swap1\n      pop\n        /* \"#utility.yul\":6368:6377   */\n      dup2\n        /* \"#utility.yul\":6362:6366   */\n      dup2\n        /* \"#utility.yul\":6358:6378   */\n      sub\n        /* \"#utility.yul\":6354:6355   */\n      0x00\n        /* \"#utility.yul\":6343:6352   */\n      dup4\n        /* \"#utility.yul\":6339:6356   */\n      add\n        /* \"#utility.yul\":6332:6379   */\n      mstore\n        /* \"#utility.yul\":6396:6527   */\n      tag_174\n        /* \"#utility.yul\":6522:6526   */\n      dup2\n        /* \"#utility.yul\":6396:6527   */\n      tag_105\n      jump\t// in\n    tag_174:\n        /* \"#utility.yul\":6388:6527   */\n      swap1\n      pop\n        /* \"#utility.yul\":6115:6534   */\n      swap2\n      swap1\n      pop\n      jump\t// out\n        /* \"#utility.yul\":6540:6888   */\n    tag_67:\n        /* \"#utility.yul\":6580:6587   */\n      0x00\n        /* \"#utility.yul\":6603:6623   */\n      tag_176\n        /* \"#utility.yul\":6621:6622   */\n      dup3\n        /* \"#utility.yul\":6603:6623   */\n      tag_92\n      jump\t// in\n    tag_176:\n        /* \"#utility.yul\":6598:6623   */\n      swap2\n      pop\n        /* \"#utility.yul\":6637:6657   */\n      tag_177\n        /* \"#utility.yul\":6655:6656   */\n      dup4\n        /* \"#utility.yul\":6637:6657   */\n      tag_92\n      jump\t// in\n    tag_177:\n        /* \"#utility.yul\":6632:6657   */\n      swap3\n      pop\n        /* \"#utility.yul\":6825:6826   */\n      dup2\n        /* \"#utility.yul\":6757:6823   */\n      0xffffffffffffffffffffffffffffffffffffffffffffffffffffffffffffffff\n        /* \"#utility.yul\":6753:6827   */\n      div\n        /* \"#utility.yul\":6750:6751   */\n      dup4\n        /* \"#utility.yul\":6747:6828   */\n      gt\n        /* \"#utility.yul\":6742:6743   */\n      dup3\n        /* \"#utility.yul\":6735:6744   */\n      iszero\n        /* \"#utility.yul\":6728:6745   */\n      iszero\n        /* \"#utility.yul\":6724:6829   */\n      and\n        /* \"#utility.yul\":6721:6852   */\n      iszero\n      tag_178\n      jumpi\n        /* \"#utility.yul\":6832:6850   */\n      tag_179\n      tag_97\n      jump\t// in\n    tag_179:\n        /* \"#utility.yul\":6721:6852   */\n    tag_178:\n        /* \"#utility.yul\":6880:6881   */\n      dup3\n        /* \"#utility.yul\":6877:6878   */\n      dup3\n        /* \"#utility.yul\":6873:6882   */\n      mul\n        /* \"#utility.yul\":6862:6882   */\n      swap1\n      pop\n        /* \"#utility.yul\":6540:6888   */\n      swap3\n      swap2\n      pop\n      pop\n      jump\t// out\n        /* \"#utility.yul\":6894:7074   */\n    tag_106:\n        /* \"#utility.yul\":6942:7019   */\n      0x4e487b7100000000000000000000000000000000000000000000000000000000\n        /* \"#utility.yul\":6939:6940   */\n      0x00\n        /* \"#utility.yul\":6932:7020   */\n      mstore\n        /* \"#utility.yul\":7039:7043   */\n      0x12\n        /* \"#utility.yul\":7036:7037   */\n      0x04\n        /* \"#utility.yul\":7029:7044   */\n      mstore\n        /* \"#utility.yul\":7063:7067   */\n      0x24\n        /* \"#utility.yul\":7060:7061   */\n      0x00\n        /* \"#utility.yul\":7053:7068   */\n      revert\n        /* \"#utility.yul\":7080:7265   */\n    tag_69:\n        /* \"#utility.yul\":7120:7121   */\n      0x00\n        /* \"#utility.yul\":7137:7157   */\n      tag_182\n        /* \"#utility.yul\":7155:7156   */\n      dup3\n        /* \"#utility.yul\":7137:7157   */\n      tag_92\n      jump\t// in\n    tag_182:\n        /* \"#utility.yul\":7132:7157   */\n      swap2\n      pop\n        /* \"#utility.yul\":7171:7191   */\n      tag_183\n        /* \"#utility.yul\":7189:7190   */\n      dup4\n        /* \"#utility.yul\":7171:7191   */\n      tag_92\n      jump\t// in\n    tag_183:\n        /* \"#utility.yul\":7166:7191   */\n      swap3\n      pop\n        /* \"#utility.yul\":7210:7211   */\n      dup3\n        /* \"#utility.yul\":7200:7235   */\n      tag_184\n      jumpi\n        /* \"#utility.yul\":7215:7233   */\n      tag_185\n      tag_106\n      jump\t// in\n    tag_185:\n        /* \"#utility.yul\":7200:7235   */\n    tag_184:\n        /* \"#utility.yul\":7257:7258   */\n      dup3\n        /* \"#utility.yul\":7254:7255   */\n      dup3\n        /* \"#utility.yul\":7250:7259   */\n      div\n        /* \"#utility.yul\":7245:7259   */\n      swap1\n      pop\n        /* \"#utility.yul\":7080:7265   */\n      swap3\n      swap2\n      pop\n      pop\n      jump\t// out\n        /* \"#utility.yul\":7271:7376   */\n    tag_107:\n        /* \"#utility.yul\":7307:7314   */\n      0x00\n        /* \"#utility.yul\":7347:7369   */\n      0xffffffffffffffffffff\n        /* \"#utility.yul\":7340:7345   */\n      dup3\n        /* \"#utility.yul\":7336:7370   */\n      and\n        /* \"#utility.yul\":7325:7370   */\n      swap1\n      pop\n        /* \"#utility.yul\":7271:7376   */\n      swap2\n      swap1\n      pop\n      jump\t// out\n        /* \"#utility.yul\":7382:7502   */\n    tag_108:\n        /* \"#utility.yul\":7454:7477   */\n      tag_188\n        /* \"#utility.yul\":7471:7476   */\n      dup2\n        /* \"#utility.yul\":7454:7477   */\n      tag_107\n      jump\t// in\n    tag_188:\n        /* \"#utility.yul\":7447:7452   */\n      dup2\n        /* \"#utility.yul\":7444:7478   */\n      eq\n        /* \"#utility.yul\":7434:7496   */\n      tag_189\n      jumpi\n        /* \"#utility.yul\":7492:7493   */\n      0x00\n        /* \"#utility.yul\":7489:7490   */\n      dup1\n        /* \"#utility.yul\":7482:7494   */\n      revert\n        /* \"#utility.yul\":7434:7496   */\n    tag_189:\n        /* \"#utility.yul\":7382:7502   */\n      pop\n      jump\t// out\n        /* \"#utility.yul\":7508:7649   */\n    tag_109:\n        /* \"#utility.yul\":7564:7569   */\n      0x00\n        /* \"#utility.yul\":7595:7601   */\n      dup2\n        /* \"#utility.yul\":7589:7602   */\n      mload\n        /* \"#utility.yul\":7580:7602   */\n      swap1\n      pop\n        /* \"#utility.yul\":7611:7643   */\n      tag_191\n        /* \"#utility.yul\":7637:7642   */\n      dup2\n        /* \"#utility.yul\":7611:7643   */\n      tag_108\n      jump\t// in\n    tag_191:\n        /* \"#utility.yul\":7508:7649   */\n      swap3\n      swap2\n      pop\n      pop\n      jump\t// out\n        /* \"#utility.yul\":7655:7731   */\n    tag_110:\n        /* \"#utility.yul\":7691:7698   */\n      0x00\n        /* \"#utility.yul\":7720:7725   */\n      dup2\n        /* \"#utility.yul\":7709:7725   */\n      swap1\n      pop\n        /* \"#utility.yul\":7655:7731   */\n      swap2\n      swap1\n      pop\n      jump\t// out\n        /* \"#utility.yul\":7737:7857   */\n    tag_111:\n        /* \"#utility.yul\":7809:7832   */\n      tag_194\n        /* \"#utility.yul\":7826:7831   */\n      dup2\n        /* \"#utility.yul\":7809:7832   */\n      tag_110\n      jump\t// in\n    tag_194:\n        /* \"#utility.yul\":7802:7807   */\n      dup2\n        /* \"#utility.yul\":7799:7833   */\n      eq\n        /* \"#utility.yul\":7789:7851   */\n      tag_195\n      jumpi\n        /* \"#utility.yul\":7847:7848   */\n      0x00\n        /* \"#utility.yul\":7844:7845   */\n      dup1\n        /* \"#utility.yul\":7837:7849   */\n      revert\n        /* \"#utility.yul\":7789:7851   */\n    tag_195:\n        /* \"#utility.yul\":7737:7857   */\n      pop\n      jump\t// out\n        /* \"#utility.yul\":7863:8004   */\n    tag_112:\n        /* \"#utility.yul\":7919:7924   */\n      0x00\n        /* \"#utility.yul\":7950:7956   */\n      dup2\n        /* \"#utility.yul\":7944:7957   */\n      mload\n        /* \"#utility.yul\":7935:7957   */\n      swap1\n      pop\n        /* \"#utility.yul\":7966:7998   */\n      tag_197\n        /* \"#utility.yul\":7992:7997   */\n      dup2\n        /* \"#utility.yul\":7966:7998   */\n      tag_111\n      jump\t// in\n    tag_197:\n        /* \"#utility.yul\":7863:8004   */\n      swap3\n      swap2\n      pop\n      pop\n      jump\t// out\n        /* \"#utility.yul\":8010:8153   */\n    tag_113:\n        /* \"#utility.yul\":8067:8072   */\n      0x00\n        /* \"#utility.yul\":8098:8104   */\n      dup2\n        /* \"#utility.yul\":8092:8105   */\n      mload\n        /* \"#utility.yul\":8083:8105   */\n      swap1\n      pop\n        /* \"#utility.yul\":8114:8147   */\n      tag_199\n        /* \"#utility.yul\":8141:8146   */\n      dup2\n        /* \"#utility.yul\":8114:8147   */\n      tag_94\n      jump\t// in\n    tag_199:\n        /* \"#utility.yul\":8010:8153   */\n      swap3\n      swap2\n      pop\n      pop\n      jump\t// out\n        /* \"#utility.yul\":8159:9130   */\n    tag_75:\n        /* \"#utility.yul\":8262:8268   */\n      0x00\n        /* \"#utility.yul\":8270:8276   */\n      dup1\n        /* \"#utility.yul\":8278:8284   */\n      0x00\n        /* \"#utility.yul\":8286:8292   */\n      dup1\n        /* \"#utility.yul\":8294:8300   */\n      0x00\n        /* \"#utility.yul\":8343:8346   */\n      0xa0\n        /* \"#utility.yul\":8331:8340   */\n      dup7\n        /* \"#utility.yul\":8322:8329   */\n      dup9\n        /* \"#utility.yul\":8318:8341   */\n      sub\n        /* \"#utility.yul\":8314:8347   */\n      slt\n        /* \"#utility.yul\":8311:8431   */\n      iszero\n      tag_201\n      jumpi\n        /* \"#utility.yul\":8350:8429   */\n      tag_202\n      tag_86\n      jump\t// in\n    tag_202:\n        /* \"#utility.yul\":8311:8431   */\n    tag_201:\n        /* \"#utility.yul\":8470:8471   */\n      0x00\n        /* \"#utility.yul\":8495:8558   */\n      tag_203\n        /* \"#utility.yul\":8550:8557   */\n      dup9\n        /* \"#utility.yul\":8541:8547   */\n      dup3\n        /* \"#utility.yul\":8530:8539   */\n      dup10\n        /* \"#utility.yul\":8526:8548   */\n      add\n        /* \"#utility.yul\":8495:8558   */\n      tag_109\n      jump\t// in\n    tag_203:\n        /* \"#utility.yul\":8485:8558   */\n      swap6\n      pop\n        /* \"#utility.yul\":8441:8568   */\n      pop\n        /* \"#utility.yul\":8607:8609   */\n      0x20\n        /* \"#utility.yul\":8633:8696   */\n      tag_204\n        /* \"#utility.yul\":8688:8695   */\n      dup9\n        /* \"#utility.yul\":8679:8685   */\n      dup3\n        /* \"#utility.yul\":8668:8677   */\n      dup10\n        /* \"#utility.yul\":8664:8686   */\n      add\n        /* \"#utility.yul\":8633:8696   */\n      tag_112\n      jump\t// in\n    tag_204:\n        /* \"#utility.yul\":8623:8696   */\n      swap5\n      pop\n        /* \"#utility.yul\":8578:8706   */\n      pop\n        /* \"#utility.yul\":8745:8747   */\n      0x40\n        /* \"#utility.yul\":8771:8835   */\n      tag_205\n        /* \"#utility.yul\":8827:8834   */\n      dup9\n        /* \"#utility.yul\":8818:8824   */\n      dup3\n        /* \"#utility.yul\":8807:8816   */\n      dup10\n        /* \"#utility.yul\":8803:8825   */\n      add\n        /* \"#utility.yul\":8771:8835   */\n      tag_113\n      jump\t// in\n    tag_205:\n        /* \"#utility.yul\":8761:8835   */\n      swap4\n      pop\n        /* \"#utility.yul\":8716:8845   */\n      pop\n        /* \"#utility.yul\":8884:8886   */\n      0x60\n        /* \"#utility.yul\":8910:8974   */\n      tag_206\n        /* \"#utility.yul\":8966:8973   */\n      dup9\n        /* \"#utility.yul\":8957:8963   */\n      dup3\n        /* \"#utility.yul\":8946:8955   */\n      dup10\n        /* \"#utility.yul\":8942:8964   */\n      add\n        /* \"#utility.yul\":8910:8974   */\n      tag_113\n      jump\t// in\n    tag_206:\n        /* \"#utility.yul\":8900:8974   */\n      swap3\n      pop\n        /* \"#utility.yul\":8855:8984   */\n      pop\n        /* \"#utility.yul\":9023:9026   */\n      0x80\n        /* \"#utility.yul\":9050:9113   */\n      tag_207\n        /* \"#utility.yul\":9105:9112   */\n      dup9\n        /* \"#utility.yul\":9096:9102   */\n      dup3\n        /* \"#utility.yul\":9085:9094   */\n      dup10\n        /* \"#utility.yul\":9081:9103   */\n      add\n        /* \"#utility.yul\":9050:9113   */\n      tag_109\n      jump\t// in\n    tag_207:\n        /* \"#utility.yul\":9040:9113   */\n      swap2\n      pop\n        /* \"#utility.yul\":8994:9123   */\n      pop\n        /* \"#utility.yul\":8159:9130   */\n      swap3\n      swap6\n      pop\n      swap3\n      swap6\n      swap1\n      swap4\n      pop\n      jump\t// out\n        /* \"#utility.yul\":9136:10127   */\n    tag_77:\n        /* \"#utility.yul\":9175:9182   */\n      0x00\n        /* \"#utility.yul\":9198:9217   */\n      tag_209\n        /* \"#utility.yul\":9215:9216   */\n      dup3\n        /* \"#utility.yul\":9198:9217   */\n      tag_110\n      jump\t// in\n    tag_209:\n        /* \"#utility.yul\":9193:9217   */\n      swap2\n      pop\n        /* \"#utility.yul\":9231:9250   */\n      tag_210\n        /* \"#utility.yul\":9248:9249   */\n      dup4\n        /* \"#utility.yul\":9231:9250   */\n      tag_110\n      jump\t// in\n    tag_210:\n        /* \"#utility.yul\":9226:9250   */\n      swap3\n      pop\n        /* \"#utility.yul\":9432:9433   */\n      dup3\n        /* \"#utility.yul\":9364:9430   */\n      0x7fffffffffffffffffffffffffffffffffffffffffffffffffffffffffffffff\n        /* \"#utility.yul\":9360:9434   */\n      div\n        /* \"#utility.yul\":9357:9358   */\n      dup3\n        /* \"#utility.yul\":9354:9435   */\n      gt\n        /* \"#utility.yul\":9349:9350   */\n      0x00\n        /* \"#utility.yul\":9346:9347   */\n      dup5\n        /* \"#utility.yul\":9342:9351   */\n      sgt\n        /* \"#utility.yul\":9338:9339   */\n      0x00\n        /* \"#utility.yul\":9335:9336   */\n      dup5\n        /* \"#utility.yul\":9331:9340   */\n      sgt\n        /* \"#utility.yul\":9327:9352   */\n      and\n        /* \"#utility.yul\":9323:9436   */\n      and\n        /* \"#utility.yul\":9320:9459   */\n      iszero\n      tag_211\n      jumpi\n        /* \"#utility.yul\":9439:9457   */\n      tag_212\n      tag_97\n      jump\t// in\n    tag_212:\n        /* \"#utility.yul\":9320:9459   */\n    tag_211:\n        /* \"#utility.yul\":9643:9644   */\n      dup2\n        /* \"#utility.yul\":9575:9641   */\n      0x8000000000000000000000000000000000000000000000000000000000000000\n        /* \"#utility.yul\":9570:9645   */\n      sdiv\n        /* \"#utility.yul\":9567:9568   */\n      dup4\n        /* \"#utility.yul\":9563:9646   */\n      slt\n        /* \"#utility.yul\":9558:9559   */\n      0x00\n        /* \"#utility.yul\":9555:9556   */\n      dup5\n        /* \"#utility.yul\":9551:9560   */\n      slt\n        /* \"#utility.yul\":9547:9548   */\n      0x00\n        /* \"#utility.yul\":9544:9545   */\n      dup5\n        /* \"#utility.yul\":9540:9549   */\n      sgt\n        /* \"#utility.yul\":9536:9561   */\n      and\n        /* \"#utility.yul\":9532:9647   */\n      and\n        /* \"#utility.yul\":9529:9670   */\n      iszero\n      tag_213\n      jumpi\n        /* \"#utility.yul\":9650:9668   */\n      tag_214\n      tag_97\n      jump\t// in\n    tag_214:\n        /* \"#utility.yul\":9529:9670   */\n    tag_213:\n        /* \"#utility.yul\":9854:9855   */\n      dup3\n        /* \"#utility.yul\":9786:9852   */\n      0x8000000000000000000000000000000000000000000000000000000000000000\n        /* \"#utility.yul\":9781:9856   */\n      sdiv\n        /* \"#utility.yul\":9778:9779   */\n      dup3\n        /* \"#utility.yul\":9774:9857   */\n      slt\n        /* \"#utility.yul\":9769:9770   */\n      0x00\n        /* \"#utility.yul\":9766:9767   */\n      dup5\n        /* \"#utility.yul\":9762:9771   */\n      sgt\n        /* \"#utility.yul\":9758:9759   */\n      0x00\n        /* \"#utility.yul\":9755:9756   */\n      dup5\n        /* \"#utility.yul\":9751:9760   */\n      slt\n        /* \"#utility.yul\":9747:9772   */\n      and\n        /* \"#utility.yul\":9743:9858   */\n      and\n        /* \"#utility.yul\":9740:9881   */\n      iszero\n      tag_215\n      jumpi\n        /* \"#utility.yul\":9861:9879   */\n      tag_216\n      tag_97\n      jump\t// in\n    tag_216:\n        /* \"#utility.yul\":9740:9881   */\n    tag_215:\n        /* \"#utility.yul\":10064:10065   */\n      dup3\n        /* \"#utility.yul\":9996:10062   */\n      0x7fffffffffffffffffffffffffffffffffffffffffffffffffffffffffffffff\n        /* \"#utility.yul\":9991:10066   */\n      sdiv\n        /* \"#utility.yul\":9988:9989   */\n      dup3\n        /* \"#utility.yul\":9984:10067   */\n      slt\n        /* \"#utility.yul\":9979:9980   */\n      0x00\n        /* \"#utility.yul\":9976:9977   */\n      dup5\n        /* \"#utility.yul\":9972:9981   */\n      slt\n        /* \"#utility.yul\":9968:9969   */\n      0x00\n        /* \"#utility.yul\":9965:9966   */\n      dup5\n        /* \"#utility.yul\":9961:9970   */\n      slt\n        /* \"#utility.yul\":9957:9982   */\n      and\n        /* \"#utility.yul\":9953:10068   */\n      and\n        /* \"#utility.yul\":9950:10091   */\n      iszero\n      tag_217\n      jumpi\n        /* \"#utility.yul\":10071:10089   */\n      tag_218\n      tag_97\n      jump\t// in\n    tag_218:\n        /* \"#utility.yul\":9950:10091   */\n    tag_217:\n        /* \"#utility.yul\":10119:10120   */\n      dup3\n        /* \"#utility.yul\":10116:10117   */\n      dup3\n        /* \"#utility.yul\":10112:10121   */\n      mul\n        /* \"#utility.yul\":10101:10121   */\n      swap1\n      pop\n        /* \"#utility.yul\":9136:10127   */\n      swap3\n      swap2\n      pop\n      pop\n      jump\t// out\n\n    auxdata: 0xa2646970667358221220bc1056f67ac9dbbe2021f917f8190df1a47485b14505dcd7b440d85691a0a08b64736f6c63430008080033\n}\n",
				"bytecode": {
					"linkReferences": {},
					"object": "60806040526802b5e3af16b188000060005534801561001d57600080fd5b50610c188061002d6000396000f3fe60806040526004361061004a5760003560e01c80633ccfd60b1461004f5780633e47d6f31461006657806351b80e41146100a3578063b60d4288146100ce578063dc0d3dff146100d8575b600080fd5b34801561005b57600080fd5b50610064610115565b005b34801561007257600080fd5b5061008d60048036038101906100889190610620565b6102d1565b60405161009a9190610666565b60405180910390f35b3480156100af57600080fd5b506100b86102e9565b6040516100c59190610666565b60405180910390f35b6100d66102ef565b005b3480156100e457600080fd5b506100ff60048036038101906100fa91906106ad565b6103e5565b60405161010c91906106e9565b60405180910390f35b60005b6001805490508110156101c15760006001828154811061013b5761013a610704565b5b9060005260206000200160009054906101000a900473ffffffffffffffffffffffffffffffffffffffff1690506000600260008373ffffffffffffffffffffffffffffffffffffffff1673ffffffffffffffffffffffffffffffffffffffff168152602001908152602001600020819055505080806101b990610762565b915050610118565b50600067ffffffffffffffff8111156101dd576101dc6107ab565b5b60405190808252806020026020018201604052801561020b5781602001602082028036833780820191505090505b5060019080519060200190610221929190610516565b5060003373ffffffffffffffffffffffffffffffffffffffff16476040516102489061080b565b60006040518083038185875af1925050503d8060008114610285576040519150601f19603f3d011682016040523d82523d6000602084013e61028a565b606091505b50509050806102ce576040517f08c379a00000000000000000000000000000000000000000000000000000000081526004016102c59061087d565b60405180910390fd5b50565b60026020528060005260406000206000915090505481565b60005481565b6000546102fb34610424565b101561033c576040517f08c379a0000000000000000000000000000000000000000000000000000000008152600401610333906108e9565b60405180910390fd5b6001339080600181540180825580915050600190039060005260206000200160009091909190916101000a81548173ffffffffffffffffffffffffffffffffffffffff021916908373ffffffffffffffffffffffffffffffffffffffff16021790555034600260003373ffffffffffffffffffffffffffffffffffffffff1673ffffffffffffffffffffffffffffffffffffffff16815260200190815260200160002081905550565b600181815481106103f557600080fd5b906000526020600020016000915054906101000a900473ffffffffffffffffffffffffffffffffffffffff1681565b60008061042f61045e565b90506000670de0b6b3a764000084836104489190610909565b6104529190610992565b90508092505050919050565b600080738a753747a1fa494ec906ce90e9f37563a8af630e905060008173ffffffffffffffffffffffffffffffffffffffff1663feaf968c6040518163ffffffff1660e01b815260040160a06040518083038186803b1580156104c057600080fd5b505afa1580156104d4573d6000803e3d6000fd5b505050506040513d601f19601f820116820180604052508101906104f89190610a50565b5050509150506402540be4008161050f9190610acb565b9250505090565b82805482825590600052602060002090810192821561058f579160200282015b8281111561058e5782518260006101000a81548173ffffffffffffffffffffffffffffffffffffffff021916908373ffffffffffffffffffffffffffffffffffffffff16021790555091602001919060010190610536565b5b50905061059c91906105a0565b5090565b5b808211156105b95760008160009055506001016105a1565b5090565b600080fd5b600073ffffffffffffffffffffffffffffffffffffffff82169050919050565b60006105ed826105c2565b9050919050565b6105fd816105e2565b811461060857600080fd5b50565b60008135905061061a816105f4565b92915050565b600060208284031215610636576106356105bd565b5b60006106448482850161060b565b91505092915050565b6000819050919050565b6106608161064d565b82525050565b600060208201905061067b6000830184610657565b92915050565b61068a8161064d565b811461069557600080fd5b50565b6000813590506106a781610681565b92915050565b6000602082840312156106c3576106c26105bd565b5b60006106d184828501610698565b91505092915050565b6106e3816105e2565b82525050565b60006020820190506106fe60008301846106da565b92915050565b7f4e487b7100000000000000000000000000000000000000000000000000000000600052603260045260246000fd5b7f4e487b7100000000000000000000000000000000000000000000000000000000600052601160045260246000fd5b600061076d8261064d565b91507fffffffffffffffffffffffffffffffffffffffffffffffffffffffffffffffff8214156107a05761079f610733565b5b600182019050919050565b7f4e487b7100000000000000000000000000000000000000000000000000000000600052604160045260246000fd5b600081905092915050565b50565b60006107f56000836107da565b9150610800826107e5565b600082019050919050565b6000610816826107e8565b9150819050919050565b600082825260208201905092915050565b7f43616c6c206661696c6564000000000000000000000000000000000000000000600082015250565b6000610867600b83610820565b915061087282610831565b602082019050919050565b600060208201905081810360008301526108968161085a565b9050919050565b7f4469646e27742073656e6420656e6f7567680000000000000000000000000000600082015250565b60006108d3601283610820565b91506108de8261089d565b602082019050919050565b60006020820190508181036000830152610902816108c6565b9050919050565b60006109148261064d565b915061091f8361064d565b9250817fffffffffffffffffffffffffffffffffffffffffffffffffffffffffffffffff048311821515161561095857610957610733565b5b828202905092915050565b7f4e487b7100000000000000000000000000000000000000000000000000000000600052601260045260246000fd5b600061099d8261064d565b91506109a88361064d565b9250826109b8576109b7610963565b5b828204905092915050565b600069ffffffffffffffffffff82169050919050565b6109e2816109c3565b81146109ed57600080fd5b50565b6000815190506109ff816109d9565b92915050565b6000819050919050565b610a1881610a05565b8114610a2357600080fd5b50565b600081519050610a3581610a0f565b92915050565b600081519050610a4a81610681565b92915050565b600080600080600060a08688031215610a6c57610a6b6105bd565b5b6000610a7a888289016109f0565b9550506020610a8b88828901610a26565b9450506040610a9c88828901610a3b565b9350506060610aad88828901610a3b565b9250506080610abe888289016109f0565b9150509295509295909350565b6000610ad682610a05565b9150610ae183610a05565b9250827f7fffffffffffffffffffffffffffffffffffffffffffffffffffffffffffffff0482116000841360008413161615610b2057610b1f610733565b5b817f80000000000000000000000000000000000000000000000000000000000000000583126000841260008413161615610b5d57610b5c610733565b5b827f80000000000000000000000000000000000000000000000000000000000000000582126000841360008412161615610b9a57610b99610733565b5b827f7fffffffffffffffffffffffffffffffffffffffffffffffffffffffffffffff0582126000841260008412161615610bd757610bd6610733565b5b82820290509291505056fea2646970667358221220bc1056f67ac9dbbe2021f917f8190df1a47485b14505dcd7b440d85691a0a08b64736f6c63430008080033",
					"opcodes": "PUSH1 0x80 PUSH1 0x40 MSTORE PUSH9 0x2B5E3AF16B1880000 PUSH1 0x0 SSTORE CALLVALUE DUP1 ISZERO PUSH2 0x1D JUMPI PUSH1 0x0 DUP1 REVERT JUMPDEST POP PUSH2 0xC18 DUP1 PUSH2 0x2D PUSH1 0x0 CODECOPY PUSH1 0x0 RETURN INVALID PUSH1 0x80 PUSH1 0x40 MSTORE PUSH1 0x4 CALLDATASIZE LT PUSH2 0x4A JUMPI PUSH1 0x0 CALLDATALOAD PUSH1 0xE0 SHR DUP1 PUSH4 0x3CCFD60B EQ PUSH2 0x4F JUMPI DUP1 PUSH4 0x3E47D6F3 EQ PUSH2 0x66 JUMPI DUP1 PUSH4 0x51B80E41 EQ PUSH2 0xA3 JUMPI DUP1 PUSH4 0xB60D4288 EQ PUSH2 0xCE JUMPI DUP1 PUSH4 0xDC0D3DFF EQ PUSH2 0xD8 JUMPI JUMPDEST PUSH1 0x0 DUP1 REVERT JUMPDEST CALLVALUE DUP1 ISZERO PUSH2 0x5B JUMPI PUSH1 0x0 DUP1 REVERT JUMPDEST POP PUSH2 0x64 PUSH2 0x115 JUMP JUMPDEST STOP JUMPDEST CALLVALUE DUP1 ISZERO PUSH2 0x72 JUMPI PUSH1 0x0 DUP1 REVERT JUMPDEST POP PUSH2 0x8D PUSH1 0x4 DUP1 CALLDATASIZE SUB DUP2 ADD SWAP1 PUSH2 0x88 SWAP2 SWAP1 PUSH2 0x620 JUMP JUMPDEST PUSH2 0x2D1 JUMP JUMPDEST PUSH1 0x40 MLOAD PUSH2 0x9A SWAP2 SWAP1 PUSH2 0x666 JUMP JUMPDEST PUSH1 0x40 MLOAD DUP1 SWAP2 SUB SWAP1 RETURN JUMPDEST CALLVALUE DUP1 ISZERO PUSH2 0xAF JUMPI PUSH1 0x0 DUP1 REVERT JUMPDEST POP PUSH2 0xB8 PUSH2 0x2E9 JUMP JUMPDEST PUSH1 0x40 MLOAD PUSH2 0xC5 SWAP2 SWAP1 PUSH2 0x666 JUMP JUMPDEST PUSH1 0x40 MLOAD DUP1 SWAP2 SUB SWAP1 RETURN JUMPDEST PUSH2 0xD6 PUSH2 0x2EF JUMP JUMPDEST STOP JUMPDEST CALLVALUE DUP1 ISZERO PUSH2 0xE4 JUMPI PUSH1 0x0 DUP1 REVERT JUMPDEST POP PUSH2 0xFF PUSH1 0x4 DUP1 CALLDATASIZE SUB DUP2 ADD SWAP1 PUSH2 0xFA SWAP2 SWAP1 PUSH2 0x6AD JUMP JUMPDEST PUSH2 0x3E5 JUMP JUMPDEST PUSH1 0x40 MLOAD PUSH2 0x10C SWAP2 SWAP1 PUSH2 0x6E9 JUMP JUMPDEST PUSH1 0x40 MLOAD DUP1 SWAP2 SUB SWAP1 RETURN JUMPDEST PUSH1 0x0 JUMPDEST PUSH1 0x1 DUP1 SLOAD SWAP1 POP DUP2 LT ISZERO PUSH2 0x1C1 JUMPI PUSH1 0x0 PUSH1 0x1 DUP3 DUP2 SLOAD DUP2 LT PUSH2 0x13B JUMPI PUSH2 0x13A PUSH2 0x704 JUMP JUMPDEST JUMPDEST SWAP1 PUSH1 0x0 MSTORE PUSH1 0x20 PUSH1 0x0 KECCAK256 ADD PUSH1 0x0 SWAP1 SLOAD SWAP1 PUSH2 0x100 EXP SWAP1 DIV PUSH20 0xFFFFFFFFFFFFFFFFFFFFFFFFFFFFFFFFFFFFFFFF AND SWAP1 POP PUSH1 0x0 PUSH1 0x2 PUSH1 0x0 DUP4 PUSH20 0xFFFFFFFFFFFFFFFFFFFFFFFFFFFFFFFFFFFFFFFF AND PUSH20 0xFFFFFFFFFFFFFFFFFFFFFFFFFFFFFFFFFFFFFFFF AND DUP2 MSTORE PUSH1 0x20 ADD SWAP1 DUP2 MSTORE PUSH1 0x20 ADD PUSH1 0x0 KECCAK256 DUP2 SWAP1 SSTORE POP POP DUP1 DUP1 PUSH2 0x1B9 SWAP1 PUSH2 0x762 JUMP JUMPDEST SWAP2 POP POP PUSH2 0x118 JUMP JUMPDEST POP PUSH1 0x0 PUSH8 0xFFFFFFFFFFFFFFFF DUP2 GT ISZERO PUSH2 0x1DD JUMPI PUSH2 0x1DC PUSH2 0x7AB JUMP JUMPDEST JUMPDEST PUSH1 0x40 MLOAD SWAP1 DUP1 DUP3 MSTORE DUP1 PUSH1 0x20 MUL PUSH1 0x20 ADD DUP3 ADD PUSH1 0x40 MSTORE DUP1 ISZERO PUSH2 0x20B JUMPI DUP2 PUSH1 0x20 ADD PUSH1 0x20 DUP3 MUL DUP1 CALLDATASIZE DUP4 CALLDATACOPY DUP1 DUP3 ADD SWAP2 POP POP SWAP1 POP JUMPDEST POP PUSH1 0x1 SWAP1 DUP1 MLOAD SWAP1 PUSH1 0x20 ADD SWAP1 PUSH2 0x221 SWAP3 SWAP2 SWAP1 PUSH2 0x516 JUMP JUMPDEST POP PUSH1 0x0 CALLER PUSH20 0xFFFFFFFFFFFFFFFFFFFFFFFFFFFFFFFFFFFFFFFF AND SELFBALANCE PUSH1 0x40 MLOAD PUSH2 0x248 SWAP1 PUSH2 0x80B JUMP JUMPDEST PUSH1 0x0 PUSH1 0x40 MLOAD DUP1 DUP4 SUB DUP2 DUP6 DUP8 GAS CALL SWAP3 POP POP POP RETURNDATASIZE DUP1 PUSH1 0x0 DUP2 EQ PUSH2 0x285 JUMPI PUSH1 0x40 MLOAD SWAP2 POP PUSH1 0x1F NOT PUSH1 0x3F RETURNDATASIZE ADD AND DUP3 ADD PUSH1 0x40 MSTORE RETURNDATASIZE DUP3 MSTORE RETURNDATASIZE PUSH1 0x0 PUSH1 0x20 DUP5 ADD RETURNDATACOPY PUSH2 0x28A JUMP JUMPDEST PUSH1 0x60 SWAP2 POP JUMPDEST POP POP SWAP1 POP DUP1 PUSH2 0x2CE JUMPI PUSH1 0x40 MLOAD PUSH32 0x8C379A000000000000000000000000000000000000000000000000000000000 DUP2 MSTORE PUSH1 0x4 ADD PUSH2 0x2C5 SWAP1 PUSH2 0x87D JUMP JUMPDEST PUSH1 0x40 MLOAD DUP1 SWAP2 SUB SWAP1 REVERT JUMPDEST POP JUMP JUMPDEST PUSH1 0x2 PUSH1 0x20 MSTORE DUP1 PUSH1 0x0 MSTORE PUSH1 0x40 PUSH1 0x0 KECCAK256 PUSH1 0x0 SWAP2 POP SWAP1 POP SLOAD DUP2 JUMP JUMPDEST PUSH1 0x0 SLOAD DUP2 JUMP JUMPDEST PUSH1 0x0 SLOAD PUSH2 0x2FB CALLVALUE PUSH2 0x424 JUMP JUMPDEST LT ISZERO PUSH2 0x33C JUMPI PUSH1 0x40 MLOAD PUSH32 0x8C379A000000000000000000000000000000000000000000000000000000000 DUP2 MSTORE PUSH1 0x4 ADD PUSH2 0x333 SWAP1 PUSH2 0x8E9 JUMP JUMPDEST PUSH1 0x40 MLOAD DUP1 SWAP2 SUB SWAP1 REVERT JUMPDEST PUSH1 0x1 CALLER SWAP1 DUP1 PUSH1 0x1 DUP2 SLOAD ADD DUP1 DUP3 SSTORE DUP1 SWAP2 POP POP PUSH1 0x1 SWAP1 SUB SWAP1 PUSH1 0x0 MSTORE PUSH1 0x20 PUSH1 0x0 KECCAK256 ADD PUSH1 0x0 SWAP1 SWAP2 SWAP1 SWAP2 SWAP1 SWAP2 PUSH2 0x100 EXP DUP2 SLOAD DUP2 PUSH20 0xFFFFFFFFFFFFFFFFFFFFFFFFFFFFFFFFFFFFFFFF MUL NOT AND SWAP1 DUP4 PUSH20 0xFFFFFFFFFFFFFFFFFFFFFFFFFFFFFFFFFFFFFFFF AND MUL OR SWAP1 SSTORE POP CALLVALUE PUSH1 0x2 PUSH1 0x0 CALLER PUSH20 0xFFFFFFFFFFFFFFFFFFFFFFFFFFFFFFFFFFFFFFFF AND PUSH20 0xFFFFFFFFFFFFFFFFFFFFFFFFFFFFFFFFFFFFFFFF AND DUP2 MSTORE PUSH1 0x20 ADD SWAP1 DUP2 MSTORE PUSH1 0x20 ADD PUSH1 0x0 KECCAK256 DUP2 SWAP1 SSTORE POP JUMP JUMPDEST PUSH1 0x1 DUP2 DUP2 SLOAD DUP2 LT PUSH2 0x3F5 JUMPI PUSH1 0x0 DUP1 REVERT JUMPDEST SWAP1 PUSH1 0x0 MSTORE PUSH1 0x20 PUSH1 0x0 KECCAK256 ADD PUSH1 0x0 SWAP2 POP SLOAD SWAP1 PUSH2 0x100 EXP SWAP1 DIV PUSH20 0xFFFFFFFFFFFFFFFFFFFFFFFFFFFFFFFFFFFFFFFF AND DUP2 JUMP JUMPDEST PUSH1 0x0 DUP1 PUSH2 0x42F PUSH2 0x45E JUMP JUMPDEST SWAP1 POP PUSH1 0x0 PUSH8 0xDE0B6B3A7640000 DUP5 DUP4 PUSH2 0x448 SWAP2 SWAP1 PUSH2 0x909 JUMP JUMPDEST PUSH2 0x452 SWAP2 SWAP1 PUSH2 0x992 JUMP JUMPDEST SWAP1 POP DUP1 SWAP3 POP POP POP SWAP2 SWAP1 POP JUMP JUMPDEST PUSH1 0x0 DUP1 PUSH20 0x8A753747A1FA494EC906CE90E9F37563A8AF630E SWAP1 POP PUSH1 0x0 DUP2 PUSH20 0xFFFFFFFFFFFFFFFFFFFFFFFFFFFFFFFFFFFFFFFF AND PUSH4 0xFEAF968C PUSH1 0x40 MLOAD DUP2 PUSH4 0xFFFFFFFF AND PUSH1 0xE0 SHL DUP2 MSTORE PUSH1 0x4 ADD PUSH1 0xA0 PUSH1 0x40 MLOAD DUP1 DUP4 SUB DUP2 DUP7 DUP1 EXTCODESIZE ISZERO DUP1 ISZERO PUSH2 0x4C0 JUMPI PUSH1 0x0 DUP1 REVERT JUMPDEST POP GAS STATICCALL ISZERO DUP1 ISZERO PUSH2 0x4D4 JUMPI RETURNDATASIZE PUSH1 0x0 DUP1 RETURNDATACOPY RETURNDATASIZE PUSH1 0x0 REVERT JUMPDEST POP POP POP POP PUSH1 0x40 MLOAD RETURNDATASIZE PUSH1 0x1F NOT PUSH1 0x1F DUP3 ADD AND DUP3 ADD DUP1 PUSH1 0x40 MSTORE POP DUP2 ADD SWAP1 PUSH2 0x4F8 SWAP2 SWAP1 PUSH2 0xA50 JUMP JUMPDEST POP POP POP SWAP2 POP POP PUSH5 0x2540BE400 DUP2 PUSH2 0x50F SWAP2 SWAP1 PUSH2 0xACB JUMP JUMPDEST SWAP3 POP POP POP SWAP1 JUMP JUMPDEST DUP3 DUP1 SLOAD DUP3 DUP3 SSTORE SWAP1 PUSH1 0x0 MSTORE PUSH1 0x20 PUSH1 0x0 KECCAK256 SWAP1 DUP2 ADD SWAP3 DUP3 ISZERO PUSH2 0x58F JUMPI SWAP2 PUSH1 0x20 MUL DUP3 ADD JUMPDEST DUP3 DUP2 GT ISZERO PUSH2 0x58E JUMPI DUP3 MLOAD DUP3 PUSH1 0x0 PUSH2 0x100 EXP DUP2 SLOAD DUP2 PUSH20 0xFFFFFFFFFFFFFFFFFFFFFFFFFFFFFFFFFFFFFFFF MUL NOT AND SWAP1 DUP4 PUSH20 0xFFFFFFFFFFFFFFFFFFFFFFFFFFFFFFFFFFFFFFFF AND MUL OR SWAP1 SSTORE POP SWAP2 PUSH1 0x20 ADD SWAP2 SWAP1 PUSH1 0x1 ADD SWAP1 PUSH2 0x536 JUMP JUMPDEST JUMPDEST POP SWAP1 POP PUSH2 0x59C SWAP2 SWAP1 PUSH2 0x5A0 JUMP JUMPDEST POP SWAP1 JUMP JUMPDEST JUMPDEST DUP1 DUP3 GT ISZERO PUSH2 0x5B9 JUMPI PUSH1 0x0 DUP2 PUSH1 0x0 SWAP1 SSTORE POP PUSH1 0x1 ADD PUSH2 0x5A1 JUMP JUMPDEST POP SWAP1 JUMP JUMPDEST PUSH1 0x0 DUP1 REVERT JUMPDEST PUSH1 0x0 PUSH20 0xFFFFFFFFFFFFFFFFFFFFFFFFFFFFFFFFFFFFFFFF DUP3 AND SWAP1 POP SWAP2 SWAP1 POP JUMP JUMPDEST PUSH1 0x0 PUSH2 0x5ED DUP3 PUSH2 0x5C2 JUMP JUMPDEST SWAP1 POP SWAP2 SWAP1 POP JUMP JUMPDEST PUSH2 0x5FD DUP2 PUSH2 0x5E2 JUMP JUMPDEST DUP2 EQ PUSH2 0x608 JUMPI PUSH1 0x0 DUP1 REVERT JUMPDEST POP JUMP JUMPDEST PUSH1 0x0 DUP2 CALLDATALOAD SWAP1 POP PUSH2 0x61A DUP2 PUSH2 0x5F4 JUMP JUMPDEST SWAP3 SWAP2 POP POP JUMP JUMPDEST PUSH1 0x0 PUSH1 0x20 DUP3 DUP5 SUB SLT ISZERO PUSH2 0x636 JUMPI PUSH2 0x635 PUSH2 0x5BD JUMP JUMPDEST JUMPDEST PUSH1 0x0 PUSH2 0x644 DUP5 DUP3 DUP6 ADD PUSH2 0x60B JUMP JUMPDEST SWAP2 POP POP SWAP3 SWAP2 POP POP JUMP JUMPDEST PUSH1 0x0 DUP2 SWAP1 POP SWAP2 SWAP1 POP JUMP JUMPDEST PUSH2 0x660 DUP2 PUSH2 0x64D JUMP JUMPDEST DUP3 MSTORE POP POP JUMP JUMPDEST PUSH1 0x0 PUSH1 0x20 DUP3 ADD SWAP1 POP PUSH2 0x67B PUSH1 0x0 DUP4 ADD DUP5 PUSH2 0x657 JUMP JUMPDEST SWAP3 SWAP2 POP POP JUMP JUMPDEST PUSH2 0x68A DUP2 PUSH2 0x64D JUMP JUMPDEST DUP2 EQ PUSH2 0x695 JUMPI PUSH1 0x0 DUP1 REVERT JUMPDEST POP JUMP JUMPDEST PUSH1 0x0 DUP2 CALLDATALOAD SWAP1 POP PUSH2 0x6A7 DUP2 PUSH2 0x681 JUMP JUMPDEST SWAP3 SWAP2 POP POP JUMP JUMPDEST PUSH1 0x0 PUSH1 0x20 DUP3 DUP5 SUB SLT ISZERO PUSH2 0x6C3 JUMPI PUSH2 0x6C2 PUSH2 0x5BD JUMP JUMPDEST JUMPDEST PUSH1 0x0 PUSH2 0x6D1 DUP5 DUP3 DUP6 ADD PUSH2 0x698 JUMP JUMPDEST SWAP2 POP POP SWAP3 SWAP2 POP POP JUMP JUMPDEST PUSH2 0x6E3 DUP2 PUSH2 0x5E2 JUMP JUMPDEST DUP3 MSTORE POP POP JUMP JUMPDEST PUSH1 0x0 PUSH1 0x20 DUP3 ADD SWAP1 POP PUSH2 0x6FE PUSH1 0x0 DUP4 ADD DUP5 PUSH2 0x6DA JUMP JUMPDEST SWAP3 SWAP2 POP POP JUMP JUMPDEST PUSH32 0x4E487B7100000000000000000000000000000000000000000000000000000000 PUSH1 0x0 MSTORE PUSH1 0x32 PUSH1 0x4 MSTORE PUSH1 0x24 PUSH1 0x0 REVERT JUMPDEST PUSH32 0x4E487B7100000000000000000000000000000000000000000000000000000000 PUSH1 0x0 MSTORE PUSH1 0x11 PUSH1 0x4 MSTORE PUSH1 0x24 PUSH1 0x0 REVERT JUMPDEST PUSH1 0x0 PUSH2 0x76D DUP3 PUSH2 0x64D JUMP JUMPDEST SWAP2 POP PUSH32 0xFFFFFFFFFFFFFFFFFFFFFFFFFFFFFFFFFFFFFFFFFFFFFFFFFFFFFFFFFFFFFFFF DUP3 EQ ISZERO PUSH2 0x7A0 JUMPI PUSH2 0x79F PUSH2 0x733 JUMP JUMPDEST JUMPDEST PUSH1 0x1 DUP3 ADD SWAP1 POP SWAP2 SWAP1 POP JUMP JUMPDEST PUSH32 0x4E487B7100000000000000000000000000000000000000000000000000000000 PUSH1 0x0 MSTORE PUSH1 0x41 PUSH1 0x4 MSTORE PUSH1 0x24 PUSH1 0x0 REVERT JUMPDEST PUSH1 0x0 DUP2 SWAP1 POP SWAP3 SWAP2 POP POP JUMP JUMPDEST POP JUMP JUMPDEST PUSH1 0x0 PUSH2 0x7F5 PUSH1 0x0 DUP4 PUSH2 0x7DA JUMP JUMPDEST SWAP2 POP PUSH2 0x800 DUP3 PUSH2 0x7E5 JUMP JUMPDEST PUSH1 0x0 DUP3 ADD SWAP1 POP SWAP2 SWAP1 POP JUMP JUMPDEST PUSH1 0x0 PUSH2 0x816 DUP3 PUSH2 0x7E8 JUMP JUMPDEST SWAP2 POP DUP2 SWAP1 POP SWAP2 SWAP1 POP JUMP JUMPDEST PUSH1 0x0 DUP3 DUP3 MSTORE PUSH1 0x20 DUP3 ADD SWAP1 POP SWAP3 SWAP2 POP POP JUMP JUMPDEST PUSH32 0x43616C6C206661696C6564000000000000000000000000000000000000000000 PUSH1 0x0 DUP3 ADD MSTORE POP JUMP JUMPDEST PUSH1 0x0 PUSH2 0x867 PUSH1 0xB DUP4 PUSH2 0x820 JUMP JUMPDEST SWAP2 POP PUSH2 0x872 DUP3 PUSH2 0x831 JUMP JUMPDEST PUSH1 0x20 DUP3 ADD SWAP1 POP SWAP2 SWAP1 POP JUMP JUMPDEST PUSH1 0x0 PUSH1 0x20 DUP3 ADD SWAP1 POP DUP2 DUP2 SUB PUSH1 0x0 DUP4 ADD MSTORE PUSH2 0x896 DUP2 PUSH2 0x85A JUMP JUMPDEST SWAP1 POP SWAP2 SWAP1 POP JUMP JUMPDEST PUSH32 0x4469646E27742073656E6420656E6F7567680000000000000000000000000000 PUSH1 0x0 DUP3 ADD MSTORE POP JUMP JUMPDEST PUSH1 0x0 PUSH2 0x8D3 PUSH1 0x12 DUP4 PUSH2 0x820 JUMP JUMPDEST SWAP2 POP PUSH2 0x8DE DUP3 PUSH2 0x89D JUMP JUMPDEST PUSH1 0x20 DUP3 ADD SWAP1 POP SWAP2 SWAP1 POP JUMP JUMPDEST PUSH1 0x0 PUSH1 0x20 DUP3 ADD SWAP1 POP DUP2 DUP2 SUB PUSH1 0x0 DUP4 ADD MSTORE PUSH2 0x902 DUP2 PUSH2 0x8C6 JUMP JUMPDEST SWAP1 POP SWAP2 SWAP1 POP JUMP JUMPDEST PUSH1 0x0 PUSH2 0x914 DUP3 PUSH2 0x64D JUMP JUMPDEST SWAP2 POP PUSH2 0x91F DUP4 PUSH2 0x64D JUMP JUMPDEST SWAP3 POP DUP2 PUSH32 0xFFFFFFFFFFFFFFFFFFFFFFFFFFFFFFFFFFFFFFFFFFFFFFFFFFFFFFFFFFFFFFFF DIV DUP4 GT DUP3 ISZERO ISZERO AND ISZERO PUSH2 0x958 JUMPI PUSH2 0x957 PUSH2 0x733 JUMP JUMPDEST JUMPDEST DUP3 DUP3 MUL SWAP1 POP SWAP3 SWAP2 POP POP JUMP JUMPDEST PUSH32 0x4E487B7100000000000000000000000000000000000000000000000000000000 PUSH1 0x0 MSTORE PUSH1 0x12 PUSH1 0x4 MSTORE PUSH1 0x24 PUSH1 0x0 REVERT JUMPDEST PUSH1 0x0 PUSH2 0x99D DUP3 PUSH2 0x64D JUMP JUMPDEST SWAP2 POP PUSH2 0x9A8 DUP4 PUSH2 0x64D JUMP JUMPDEST SWAP3 POP DUP3 PUSH2 0x9B8 JUMPI PUSH2 0x9B7 PUSH2 0x963 JUMP JUMPDEST JUMPDEST DUP3 DUP3 DIV SWAP1 POP SWAP3 SWAP2 POP POP JUMP JUMPDEST PUSH1 0x0 PUSH10 0xFFFFFFFFFFFFFFFFFFFF DUP3 AND SWAP1 POP SWAP2 SWAP1 POP JUMP JUMPDEST PUSH2 0x9E2 DUP2 PUSH2 0x9C3 JUMP JUMPDEST DUP2 EQ PUSH2 0x9ED JUMPI PUSH1 0x0 DUP1 REVERT JUMPDEST POP JUMP JUMPDEST PUSH1 0x0 DUP2 MLOAD SWAP1 POP PUSH2 0x9FF DUP2 PUSH2 0x9D9 JUMP JUMPDEST SWAP3 SWAP2 POP POP JUMP JUMPDEST PUSH1 0x0 DUP2 SWAP1 POP SWAP2 SWAP1 POP JUMP JUMPDEST PUSH2 0xA18 DUP2 PUSH2 0xA05 JUMP JUMPDEST DUP2 EQ PUSH2 0xA23 JUMPI PUSH1 0x0 DUP1 REVERT JUMPDEST POP JUMP JUMPDEST PUSH1 0x0 DUP2 MLOAD SWAP1 POP PUSH2 0xA35 DUP2 PUSH2 0xA0F JUMP JUMPDEST SWAP3 SWAP2 POP POP JUMP JUMPDEST PUSH1 0x0 DUP2 MLOAD SWAP1 POP PUSH2 0xA4A DUP2 PUSH2 0x681 JUMP JUMPDEST SWAP3 SWAP2 POP POP JUMP JUMPDEST PUSH1 0x0 DUP1 PUSH1 0x0 DUP1 PUSH1 0x0 PUSH1 0xA0 DUP7 DUP9 SUB SLT ISZERO PUSH2 0xA6C JUMPI PUSH2 0xA6B PUSH2 0x5BD JUMP JUMPDEST JUMPDEST PUSH1 0x0 PUSH2 0xA7A DUP9 DUP3 DUP10 ADD PUSH2 0x9F0 JUMP JUMPDEST SWAP6 POP POP PUSH1 0x20 PUSH2 0xA8B DUP9 DUP3 DUP10 ADD PUSH2 0xA26 JUMP JUMPDEST SWAP5 POP POP PUSH1 0x40 PUSH2 0xA9C DUP9 DUP3 DUP10 ADD PUSH2 0xA3B JUMP JUMPDEST SWAP4 POP POP PUSH1 0x60 PUSH2 0xAAD DUP9 DUP3 DUP10 ADD PUSH2 0xA3B JUMP JUMPDEST SWAP3 POP POP PUSH1 0x80 PUSH2 0xABE DUP9 DUP3 DUP10 ADD PUSH2 0x9F0 JUMP JUMPDEST SWAP2 POP POP SWAP3 SWAP6 POP SWAP3 SWAP6 SWAP1 SWAP4 POP JUMP JUMPDEST PUSH1 0x0 PUSH2 0xAD6 DUP3 PUSH2 0xA05 JUMP JUMPDEST SWAP2 POP PUSH2 0xAE1 DUP4 PUSH2 0xA05 JUMP JUMPDEST SWAP3 POP DUP3 PUSH32 0x7FFFFFFFFFFFFFFFFFFFFFFFFFFFFFFFFFFFFFFFFFFFFFFFFFFFFFFFFFFFFFFF DIV DUP3 GT PUSH1 0x0 DUP5 SGT PUSH1 0x0 DUP5 SGT AND AND ISZERO PUSH2 0xB20 JUMPI PUSH2 0xB1F PUSH2 0x733 JUMP JUMPDEST JUMPDEST DUP2 PUSH32 0x8000000000000000000000000000000000000000000000000000000000000000 SDIV DUP4 SLT PUSH1 0x0 DUP5 SLT PUSH1 0x0 DUP5 SGT AND AND ISZERO PUSH2 0xB5D JUMPI PUSH2 0xB5C PUSH2 0x733 JUMP JUMPDEST JUMPDEST DUP3 PUSH32 0x8000000000000000000000000000000000000000000000000000000000000000 SDIV DUP3 SLT PUSH1 0x0 DUP5 SGT PUSH1 0x0 DUP5 SLT AND AND ISZERO PUSH2 0xB9A JUMPI PUSH2 0xB99 PUSH2 0x733 JUMP JUMPDEST JUMPDEST DUP3 PUSH32 0x7FFFFFFFFFFFFFFFFFFFFFFFFFFFFFFFFFFFFFFFFFFFFFFFFFFFFFFFFFFFFFFF SDIV DUP3 SLT PUSH1 0x0 DUP5 SLT PUSH1 0x0 DUP5 SLT AND AND ISZERO PUSH2 0xBD7 JUMPI PUSH2 0xBD6 PUSH2 0x733 JUMP JUMPDEST JUMPDEST DUP3 DUP3 MUL SWAP1 POP SWAP3 SWAP2 POP POP JUMP INVALID LOG2 PUSH5 0x6970667358 0x22 SLT KECCAK256 0xBC LT JUMP 0xF6 PUSH27 0xC9DBBE2021F917F8190DF1A47485B14505DCD7B440D85691A0A08B PUSH5 0x736F6C6343 STOP ADDMOD ADDMOD STOP CALLER "
				},
				"gasEstimates": {
					"creation": {
						"codeDepositCost": "619200",
						"executionCost": "22757",
						"totalCost": "641957"
					},
					"external": {
						"addressToAmountFunded(address)": "2814",
						"fund()": "infinite",
						"funders(uint256)": "5022",
						"minUsd()": "2451",
						"withdraw()": "infinite"
					}
				},
				"methodIdentifiers": {
					"addressToAmountFunded(address)": "3e47d6f3",
					"fund()": "b60d4288",
					"funders(uint256)": "dc0d3dff",
					"minUsd()": "51b80e41",
					"withdraw()": "3ccfd60b"
				}
			},
			"storageLayout": {
				"storage": [
					{
						"astId": 56,
						"contract": "Contracts/FundMe.sol:FundMe",
						"label": "minUsd",
						"offset": 0,
						"slot": "0",
						"type": "t_uint256"
					},
					{
						"astId": 59,
						"contract": "Contracts/FundMe.sol:FundMe",
						"label": "funders",
						"offset": 0,
						"slot": "1",
						"type": "t_array(t_address)dyn_storage"
					},
					{
						"astId": 63,
						"contract": "Contracts/FundMe.sol:FundMe",
						"label": "addressToAmountFunded",
						"offset": 0,
						"slot": "2",
						"type": "t_mapping(t_address,t_uint256)"
					}
				],
				"types": {
					"t_address": {
						"encoding": "inplace",
						"label": "address",
						"numberOfBytes": "20"
					},
					"t_array(t_address)dyn_storage": {
						"base": "t_address",
						"encoding": "dynamic_array",
						"label": "address[]",
						"numberOfBytes": "32"
					},
					"t_mapping(t_address,t_uint256)": {
						"encoding": "mapping",
						"key": "t_address",
						"label": "mapping(address => uint256)",
						"numberOfBytes": "32",
						"value": "t_uint256"
					},
					"t_uint256": {
						"encoding": "inplace",
						"label": "uint256",
						"numberOfBytes": "32"
					}
				}
			},
			"userdoc": {
				"kind": "user",
				"methods": {},
				"version": 1
			}
		}
	}
}